:0400000055EF00F0C8
:0E0008005F82FACF01F0FBCF02F0ADEF10F0F7
:100018005F80D8CF0FF0E8CF10F0E0CF11F0FACF23
:1000280012F0FBCF13F0E9CF14F0EACF15F0E1CFCF
:1000380016F0E2CF17F0D9CF18F0DACF19F0F3CFD6
:100048001AF0F4CF1BF0F6CF1CF0F7CF1DF0F8CF65
:100058001EF0F5CF1FF00CEC18F01FC0F5FF1EC006
:10006800F8FF1DC0F7FF1CC0F6FF1BC0F4FF1AC045
:10007800F3FF19C0DAFF18C0D9FF17C0E2FF16C096
:10008800E1FF15C0EAFF14C0E9FF13C0FBFF12C06F
:10009800FAFF11C0E0FF10C0E8FF0FC0D8FF5F9063
:1000A800100050EF11F03DD1E6EC06F00009D8A49D
:1000B80012006BD128EC03F00009FBE01200F805F0
:1000C800F8E012C1F1F013C1F0F0F0C02AF0F1C06D
:1000D8002BF02C6A2D6ABFEC0AF0000901E012002F
:1000E800216A240E206E74EC10F0D00E206E040EDF
:1000F800216E4C0E226E2F0E236E256A240E246E5E
:1001080051EC12F0FD0E0001F76FFD0CCBC120F091
:10011800CCC121F021EEBFF001D80AD00500FA6E5B
:10012800DE50FD6EDE50FE6EF850FF6EFA50120083
:1001380020C0DFF021C0E0F022C0E1F023C0E2F0EF
:10014800CBC120F0CCC121F021EEC1F001D80AD0FA
:100158000500FA6EDE50FD6EDE50FE6EF850FF6E42
:10016800FA50120020C0DBF021C0DCF00001DD6B8A
:10017800DE6B24EED0F0E2C0DFFF24EED1F0E1C068
:10018800DFFF24EED2F0E0C0DFFF24EED3F0DFC0C3
:10019800DFFF24EED4F0DEC0DFFF24EED5F0DDC0B3
:1001A800DFFF24EED6F0DCC0DFFF24EED7F0DBC0A3
:1001B800DFFFF16B080EECD874EC10F0A3D7F8054C
:1001C80001E177D7F16B120EE3D874EC10F000015F
:1001D800E36B1F0EE325D96EDA6A010EDA22D00E20
:1001E800E325E16EE26A040EE222DFCFE7FFE32BAC
:1001F800110EE365EED786D7030EE8CFD0F4000ED4
:10020800E8CFD1F438EC04F001D80AD00500FA6E32
:10021800DE50FD6EDE50FE6EF850FF6EFA50120092
:10022800000904E10001D86BD96B04D00001D96B37
:10023800800ED86F24EED2F0D8C0DFFF000EE8CFD2
:10024800D3F4F16B040EA4D874EC10F05BD7010161
:100258008DD8A2D885D899D02A6A2B6A2C6A2D6A9B
:10026800BFEC0AF0000901E01200010121510F0B57
:10027800060A04E104019C0501E11BD735EC13F0E3
:10028800E9D76ED882D0F251F31104E08CEC07F074
:10029800DFBE120001010B510A11091103E1400EE2
:1002A800085D05E3400E0001DA6F68D806D008C182
:1002B800DAF0086B096B0A6B0B6B0001DA51D66F29
:1002C800D76BD651F05DD751F15905E3DA51F05F9C
:1002D800000EF15B12D0E36B0DD0F051F11104E088
:1002E800F007D8A0F10705D0D00EE3253DEC05F0C6
:1002F800DF6AE32BDA51E35DF0E3010E206ED00EE6
:10030800216E040E226EDAC023F0010E0BEC0FF002
:1003180047EC05F001014CEC05F0CFD67F0EBFEF9E
:100328000CF00001F75198E0030A01E148D7110ADF
:1003380001E1C5D6080A01E15FD7010AA2E0050A72
:1003480086E03B0A01E1E2D60D0A01E1ADD6020AD8
:1003580001E1B0D6050A95E0D20A95E0030ADED796
:100368000401986B996B9A6B9B6B12002151F00BEF
:100378000509216F200E2B6F2C6B12000101085FFD
:10038800000E095B0A5B0B5B000C0001F7691200A9
:10039800F06F216A206E1200010E04019C6F010C9F
:1003A800C36F2ED10D0E0001C31901E13BD10A0E16
:1003B800C31901E137D13A0EC31901E0000C010E4F
:1003C80001015E6F526A416B426B436B446B5D6B1C
:1003D800010CC30E18EC13F0000903E101015E6B78
:1003E800000C522A520402E1C3C053F0020E521804
:1003F80001E018D15350100DF3500001C325536E7E
:10040800535001015D27526A100E536401D0E6D79C
:10041800020E63D0C30E18EC13F00009DFE0522A75
:10042800520408E10001C3510101416F426B436B63
:10043800446B010C41C1BBF042C1BCF043C1BDF0EB
:1004480044C1BEF0040ED8900001BB37BC37BD379D
:10045800BE37E82EF8D7C351BB250101416F000E06
:100468000001BC210101426F000E0001BD21010104
:10047800436F000E0001BE210101446F040E5218A3
:1004880001E0D0D0425141255D27526A030E25D0A4
:10049800C30E18EC13F00009A1E0522A520403E13C
:1004A8000001C3519BE1020E521801E0BBD0C3C04A
:1004B80055F0C0D8526A040E5E6F546AA50E206EBD
:1004C800010EBDD8100E246EB9EC13F0555001E1A1
:1004D800A9D0550404E1050E01015E6F010C040E5C
:1004E800551801E19FD07AD7C30E18EC13F0000914
:1004F80001E174D7522A520405E195D80001C339A5
:10050800F00BDF6E020E521801E08CD0526A8BD8C5
:100518000001C351DF2687D8DF5001015D27542A27
:1005280053505418D8E0010CC30E18EC13F000090E
:1005380001E154D7522A520405E10001C339F00BF6
:1005480001015D27020E52186DE1526A73D85D51A0
:1005580001E044D75E6B55501CE14151452500012F
:10056800B46F0101425146210001B56F01014351A9
:1005780047210001B66F0101445148210001B76FBE
:10058800A50EB86F010EB96F53C0BAF01CEC11F08C
:10059800010C040E55182AE1A6C1BBF00001BC6B82
:1005A800BD6BBE6BBCC0BEF0BBC0BDF0BC6BBB6B53
:1005B800A5C1BFF0C06BC16BC26BBFC0C2F0C16B3D
:1005C800C06BBF6BBB51BF250101456F0001BC511A
:1005D800C0210101466F0001BD51C1210101476FD2
:1005E8000001BE51C2210101486F010C5504D8A475
:1005F800000CA4EC14F0456B466B476B486B010C80
:1006080001015E5101E1CED6010A01E1E2D6030AF9
:1006180001E100D7010A01E13BD7070A01E164D7EC
:10062800010A82E0010CA50E5424D96EDA6A010E83
:10063800DA2212000001C35101015D271200216E68
:10064800236A2268256A1200DED0FBD80001F05127
:10065800D16FF151D26FD36BD46B090ED890D137CB
:10066800D237D337D437E82EF9D7D1C02AF0D2C041
:100678002BF0D3C02CF0D4C02DF0BFEC0AF0000949
:1006880018E1F2D801D80AD00500FA6EDE50FD6EE6
:10069800DE50FE6EF850FF6EFA50120000090BE0B3
:1006A800010EDCD80709FED851EC05F00FEC0DF06F
:1006B800566A56501200010E0001FA6F0001F051FF
:1006C800F111F6E0030E566ED00E0101596F040EBB
:1006D8005A6FD9D85C6B040142EC05F010E00001B8
:1006E800F451F51104E038EC05F0DFBEE2D7000E56
:1006F800C2D80BEC0FF06AEC0BF0040E7AD0B4D829
:1007080001D80AD00500FA6EDE50FD6EDE50FE6E8E
:10071800F850FF6EFA501200000904E0010E9ED84E
:100728000209C0D8020E65D00001F451F51104E0A9
:1007380038EC05F0DFBEBDD704019C5134E1CBC1D4
:10074800C4F0CCC1C5F0010E010149250001C66FF6
:10075800000E01014A210001C76F000E01014B2163
:100768000001C86F000E01014C210001C96FD00EB5
:10077800CA6F040ECB6F01015C2B5C050001CC6FC6
:1007880021EEC9F001D80AD00500FA6EDE50FD6EE0
:10079800DE50FE6EF850FF6EFA501200E80603E0D5
:1007A800010E5CD884D83DD80101085F0001D351FF
:1007B8000101095B0001D45101010A5B0001D55117
:1007C80001010B5B2ED80401985F0001D35104018D
:1007D800995B0001D45104019A5B0001D5510401D1
:1007E8009B5B030E06D057D80001F007D8A0F1078D
:1007F800010E566E5ED7020E04019C6F51EC05F097
:100808000FEC0DF055D7565001E11FD7010A01E151
:1008180055D7030AE8E0010A01E15DD7070A84E039
:10082800EAD7000120EE01F0F451D926F551DA2279
:10083800DF50D16FD1C0D2F0D36BD46BD56BD2510E
:10084800120011C14CF112C14BF113C14AF114C18C
:1008580049F116C1F1F017C1F0F0120004019C6FC4
:1008680001012151F00B1200CBC120F0CCC121F0C5
:1008780021EEC7F01200206E59C121F05AC122F0B2
:10088800400E236E010C0401986B020E996F9A6B4F
:100898009B6B0101020C0101492B000E4A234B23DB
:1008A8004C23000C216F270E2B6F2C6B12000309B1
:1008B800216F2B6B2C6B1200200E0001FE1901E139
:1008C800C9D01200F451F51103E0CED8DFBE1200F2
:1008D800EE6B500EEE25CDD8000EEE25E16EE26AE5
:1008E800010EE222DFCFE7FFEE2B1E0EEE65F1D7F9
:1008F80020EE01F0F451D926F551DA221F0EDE1848
:1009080056E1550E0101001952E1530E01194FE14C
:10091800420E02194CE1430E031949E1010E000190
:10092800F66F01010D513EE1110E0E613BD00E51E3
:1009380039E00CC1E9F03F0E0001E91733E1550E2B
:100948000401906F530E916F420E926F530E936F86
:1009580004C194F405C195F406C196F407C197F44F
:10096800986B996B9A6B9B6B9C6B0001F769F96BA1
:10097800566A030E01010F1904E0F00E21172B6BC4
:100988002C6B010E0CAF020E0001FA6F010180D82A
:1009980003E00001F86B03D0010E0001F86F0FC1EE
:1009A800F7F01200010E206E0FEC0DF050D0010E82
:1009B800206E0FEC0DF071D80FEC0DF00001F66B06
:1009C800120025EC08F0FF0AD8A41200030E00015B
:1009D800FA6F030C25EC08F0FF0AD8A412000401F2
:1009E8009C51F4E14BD8F2E0020E9C6FEFD742C065
:1009F800EAF043C0EBF0EA51EB110AE042C0ECF038
:100A080043C0EDF0ECC0D9FFEDC0DAFFDFBE120045
:100A1800010E206E900E216E040E226E0D0E236EB6
:100A2800010E0BEC0FF02FD80001F451F51103E083
:100A38001BD8DFBE06D061EC0BF00BEC0FF06AECB4
:100A48000BF00001FA6B1200FA6B0BEC0DF025D8D5
:100A58000FEF0DF0FA5101E135D7010AB2E0030AB0
:100A6800B9E0010AC4E0F0D7F4C0D9FFF5C0DAFF55
:100A78001200D96EDA6A040EDA22040C9851991120
:100A88009A119B11120020C0F2F021C0F3F012005D
:100A9800085109110A110B111200000E206E010CE9
:100AA800040142050DE140511F0B0AE14B8E030E74
:100AB800411904E1010E0101616F02D00101616B6E
:100AC80004014251D8A4120040511F0B020AD8A4B5
:100AD800120044510F0BD8B4120044510F0B366E5C
:100AE800040E3660040C200E0001FE19D8A4120072
:100AF8004B8E040144BF06D044510F0B75D8A3D8C0
:100B080086D806D044510F0B77D89DD8445188D841
:100B18003720DA6EDF503A6E3AB002D03B9401D0FB
:100B28003B8444BF04D044510F0B5ED803D04451DA
:100B38000F0B62D83BC0DEFF3CC0DDFF030E41193E
:100B480013E160D8DFAE0AD044BF02D060D802D02B
:100B5800445166D83720DA6E0101DF8253D8000E7F
:100B6800DB8450D8DB8E000C040E3B1A4BD8DFAE6A
:100B78000AD048D87F0EDF1645D8000EDB8C58D82F
:100B8800C9EC0EF003D03ED8000EDB8C040E3B1AE5
:100B98003AB203D037D8DFAE12D0040144BF02D036
:100BA80036D802D044513CD83720DA6E0101DF92A2
:100BB80029D83B0EDF163CD8C9EC0EF003D022D85A
:100BC8003B0EDF16040144510F0B366E376A6A0E6E
:100BD8003624386E0F0E3720396E38C0D9FF39C029
:100BE800DAFFFE0EDF16FE0C020D390EF324D96E65
:100BF800010EF420DA6E1200020DF350400FD96E88
:100C0800DA6A12003BC0D9FF3CC0DAFF1200445137
:100C18000F0B366E376A510E3624D96E010E12004C
:100C28000F0B366E376A4D0E3624D96E010E120040
:100C38002D6A050E2C6E3BC02EF03CC02FF0316A99
:100C4800020E306E020CDECF3BF0DDCF3CF012001E
:100C58002AC020F02BC021F055EC0AF0B9EC13F0B3
:100C68002C5001E093D02AC0D9FF2BC0DAFFEB0E3D
:100C7800DF6E20EE01F096D83C0EDF6E20EE02F01B
:100C880091D8900EDF6E030E92D8F50E226E2F0EBD
:100C980094D851EC12F020EE0BF084D8DF6A20EEE5
:100CA8000CF080D8020EDF6E20EE0DF07BD8010E1E
:100CB800DF6E20EE0EF076D8010EDF6E20EE10F01B
:100CC80071D8010EDF6E20EE11F06CD8100EDF6EB9
:100CD80020EE15F067D8F80EDF6E20EE16F062D819
:100CE800010EDF6E20EE18F05DD83F0EDF6E20EEAD
:100CF8001AF058D8DF6820EE1CF054D8010EDF6EC9
:100D080020EE20F04FD8030EDF6E20EE21F04AD8F7
:100D1800010EDF6E20EE22F045D8DF6A20EE23F0C8
:100D280041D8DF6A20EE24F03DD8DF6A20EE25F0B6
:100D380039D8DF6A20EE26F035D8290EDF6E20EE8E
:100D480027F030D8320EDF6E20EE28F02BD8670E51
:100D5800DF6E20EE29F026D8940EDF6E20EE2AF002
:100D680021D8C40EDF6E2B0E22D8E00E226E2F0E75
:100D7800236E256A0B0E246E51EC12F0360E17D82E
:100D8800EC0E226E2F0E19D851EF12F0070E2C60C0
:100D980001D0070C20EE3EF005D885EC09F002D80A
:100DA8008AEF09F02A50D9262B50DA2212002A2479
:100DB800206E000E2B20216E1200236E256A080E6D
:100DC800246E080C95D025EC04F0F051386EF151E2
:100DD800396E3A6A3B6A090ED890383639363A364F
:100DE8003B36E82EF9D738C02AF039C02BF03AC084
:100DF8002CF03BC02DF0BFEC0AF0000901E085D0D3
:100E08008CD8F051F11103E10001F96B7ED0F007A5
:100E1800D8A0F107020EF96FF251F31103E078D868
:100E2800DFBE73D04FEC04F047EC04F05B6BD00EE0
:100E3800596F040E5A6F030E0001F96F040142EC5A
:100E480005F002E16AD861D0040E0001F96FF25191
:100E5800F31103E05DD8DFBE58D0CBC12DF0CCC173
:100E68002EF049C12FF04AC130F04BC131F04CC1CE
:100E780032F0D00E336E040E346E01015B2B5B052D
:100E8800356E21EEC5F001D80AD00500FA6EDE50A5
:100E9800FD6EDE50FE6EF850FF6EFA501200E80646
:100EA8000AE0020E32EC04F05BEC04F0010E206E56
:100EB8000FEC0DF0A9D7010E3FEC04F00BEC0FF08E
:100EC80047EC05F0030E0001F96F400EC2EC01F08B
:100ED800400E0401985F000E995B9A5B9B5B15D0EE
:100EE800020E04019C6F010E206E0FEC0DF08CD7E2
:100EF8000001F95101E167D7010A83E0030A8CE098
:100F0800010A9CE0070AA3E0EBD70001F95112009F
:100F1800F2C0D9FFF3C0DAFF1200010E0001F96F29
:100F2800010C0001FE510AE1606A646A03EC09F0F1
:100F380001D0608660A6FDD7010EFE6FFE0508E1B0
:100F480060BA06D0656A646A64806488020EFE6FBF
:100F580065B464A403D06594E0EC13F060A202D0F9
:100F6800A494120065B064A005D0A5EC08F0040EA6
:100F7800FE6F659065B864A802D0CEEC13F065AC3E
:100F880013D064AC07D02D6A730E2C6E2E6A54D819
:100F9800C9EC0EF0659C84EC14F0595001E0590638
:100FA800595002E189EC0FF065BA64AA02D089ECC5
:100FB80013F065B264A208D07F0E2D6E2C682E6ADD
:100FC8003BD8C9EC0EF0676A040E0001FE6102D03E
:100FD800A494040C64A62ED03E6A65A62BD061CFDB
:100FE8005EF05E30E832E8320F0B5B6E65965EB4F9
:100FF80006D0510E5B24D96EDA6A010E05D04D0E6B
:101008005B24D96EDA6A010EDA220101DF705B50C7
:1010180003E1E5EC10F00AD02D6A720E2C6E5E0E1C
:101028002E6E2F6A316A306AC9EC0EF03E2A030E22
:101038003E64D3D7A49412002F6A316A010E306E31
:10104800010C6AD801D80AD00500FA6EDE50FD6E90
:10105800DE50FE6EF850FF6EFA501200000904E0F0
:10106800010161D8DE0414E14FD801D066D8E42F1D
:10107800FDD70001E51DE76FE61DE86FE7510101A7
:1010880055170001E8510101561778EC12F039D0D4
:101098003BD801D052D8E42FFDD7010155510001AA
:1010A800E517010156510001E617E551E61127E160
:1010B8003FD801D80BD005000101FA6EBD51FD6E75
:1010C800BE51FE6EF850FF6EFA50120020502110EB
:1010D800DCE01AD801D031D8E42FFDD70001E55162
:1010E800010155130001E651010156132151F00B7E
:1010F8000609216F280E2B6F2C6BD0EC01F057ECF2
:1011080000F00001F75112000DC1E4F0010E0001DA
:10111800E56FE66BE42B010CCBC120F0CCC121F0CC
:1011280021EEC3F012000D51FB0FD96EDA6A1200DE
:10113800CBC120F0CCC121F01200D890E537E637BA
:101148001200A394676A656A6A6A4FD8E5EC0DF0E5
:10115800B9EC13F054D8286A2850040D000EF32473
:10116800D96E040EF420DA6EDE6ADE6ADE6ADD6AA3
:10117800282A0F0E2864F0D7608C636A6098609CF8
:1011880065964B6A01014DD865B6FAD7010E586EBF
:101198000001FF6FFC6BFD6B0101626B286A285030
:1011A80000EC06F0DE6ADD6A2850F8EC05F0DE6A2D
:1011B800DD6A4D0E28241CD8282428D8282A030E96
:1011C8002864EDD729D8160E6A6E040E0401036F41
:1011D800400E026F080E016F040E006F008F5D6AEB
:1011E8000101636B0001FE6B12006B0E206E0F0C89
:1011F800D96EDA6A010EDA22DF6A510E1200160E73
:10120800626E9F0E666E7B0E646E7B0CD96EDA6A18
:10121800010EDA22DF6A1200080E406E040E416EDB
:10122800040C346B356B366B120028C020F029C0D3
:1012380021F055EC0AF0B9EC13F0060E2A6001D043
:10124800060C070E2A601ED020EE38F055D8F50E91
:10125800DF6E20EE39F050D88B0EDF6E20EE3AF0BC
:101268004BD8160EDF6E20EE3BF046D8EA0EDF6E46
:1012780020EE3EF041D8DF6A20EE3FF03DD8010E67
:10128800DF6E010C28C0D9FF29C0DAFF010EDF6E1E
:1012980020EE01F031D8DF6A20EE02F02DD8010EE1
:1012A800DF6E20EE03F028D8070EDF6E20EE04F084
:1012B80023D8DF6820EE05F01FD8E60EDF6E20EE9B
:1012C80006F01AD8010EDF6E20EE0AF015D8030ECC
:1012D800DF6E20EE0BF010D8010EDF6E20EE0CF062
:1012E8000BD8DF6A20EE0DF007D8DF6A20EE3EF05B
:1012F80003D807D801D80AD02850D9262950DA228D
:101308001200550EDF6E20EE3FF0550CAA0EDF6E70
:10131800AA0C800E04014019D8A41200C00E4B6E0E
:101328003FD0CA0E486E2F0E496E4D6A120E4C6E93
:10133800120C42511AE14251020D290EF324F66EA5
:101348002E0E48D8020E3AD8F76403D00800F5509C
:1013580001D02ED84C6E030E31D8F76403D00800A4
:10136800F55001D025D84D6E12004B6A1200040EBC
:101378004261FBD74251020D210EF324F66E2E0E68
:1013880029D848C0F6FF49C0F7FFF86A070EF76486
:1013980003D00800F55001D00BD84C6E4D6A1200EE
:1013A8004351010ABEE0030AC4E0010AE0E0DDD7C8
:1013B800F6CFE9FFF7CFEAFFEF5012004824206E7E
:1013C800000E4920216E20C0F6FF21C0F7FFF86A01
:1013D800070E1200F420F76E0900F5CF48F00A0056
:1013E800F5CF49F012002F5030103110321009E1BA
:1013F80033C028F034C029F035C02AF019EC09F0C0
:10140800010C2F0430103110321009E133C02AF0DA
:1014180034C02BF035C02CF02CEC06F0010C020E79
:1014280046D809E133C028F034C029F035C02AF085
:1014380000EC12F0010C030E3AD809E133C02AF08F
:1014480034C02BF035C02CF0D7EC11F0010C33C0B0
:1014580020F034C021F025D8B9EC13F0040E27D8B9
:101468001FE1BDEC14F03F0F3F0B3560010C33C09A
:1014780020F034C021F03550366E376A060ED89009
:1014880036363736E82EFBD78D0E3624226E2E0ED2
:101498003720236E256A400E246EACEC11F0010C47
:1014A800010C236A226A256A400E246E400C2F180C
:1014B800301031103210120020EE01F0BCEC0FF0A9
:1014C800DF50216E2150355D000E365902E235C1DC
:1014D80021F02150355F000E365B206A0DD0480E92
:1014E80020243DEC05F031C1E1FF32C1E2FFDFCF3E
:1014F800E7FF314B322B202A2150205CF0E3355195
:10150800361119E020EE01F020D824D81ED8480E54
:10151800C1EC0FF09DEC13F0DFBC05D050C0D9FF33
:1015280025D81DD8000C50C0D9FF51C0DAFF080ECD
:10153800DF6E15D8000C53EC0CF0DF6E10D8349F1A
:101548005750D8B489EC0FF012005050D92651509A
:10155800DA221200080EDF6E20EE02F0080C50C0EE
:10156800D9FF51C0DAFF000EDB8E000C51C0DAFF44
:10157800480EDF6E480C2A502B102C102D1003E15A
:10158800010E306E01D0306A0001F80503E1300425
:1015980001E1000C2A500101081914E12B50091926
:1015A80011E12C500A190EE12D500B190BE1000125
:1015B800FA0504E12A0EF71905E0000C2A0EF719BE
:1015C80001E1000C010108512A5C09512B580A510C
:1015D8002C580B512D5803E2010E2E6E01D02E6AA5
:1015E800020E0001FA1912E12A0EF71904E0305030
:1015F80002E1050E15D0F80502E1010E11D0300404
:1016080002E1040E0DD02E04FCE0F3D72A0EF719E0
:1016180002E1030E05D0F805F0E0300403E1020E04
:101628002F6E03D02E04FBE0F4D72F50BFEC0CF044
:101638002F501200040140511F0BE80601E0120070
:10164800445135E0120042514311D8A412004651CA
:10165800471101E01200C4EC0BF0010EF66F3BC11C
:1016680027F03CC128F0275028100AE03BC129F098
:101678003CC12AF029C0D9FF2AC0DAFFDFBE04D056
:101688001CD80BEC0FF022D8800E4B6E800C425108
:101698004311D8A412004605471101E01200486B17
:1016A8001AD84D6A010E4C6EC10E4B6EC10C4151D9
:1016B800FE0AEDE0010AC7E01200000E206E500E8F
:1016C800216E040E226E400E236E010C20C0F4F031
:1016D80021C0F5F01200480E486E040E496E040C45
:1016E80061EC0BF00BEC0FF06AEC0BF042C0F2F07F
:1016F80043C0F3F045D8F86B010EF66F0101556B46
:10170800566B0D6B3AD097EC08F0000EDF6E90EC3C
:1017180008F001D80AD00500FA6EDE50FD6EDE50E2
:10172800FE6EF850FF6EFA501200000923E09CECA0
:1017380008F001D80BD005000101FA6EBD51FD6E0D
:10174800BE51FE6EF850FF6EFA5012002050211064
:1017580011E00DC127F0010E286E296A272A03D04F
:10176800D89028362936272EFBD728500101551343
:101778002950561335EC13F00D2B0D51C4E012000F
:101788000001FA6BF769F96B566A1200080E206EB1
:101798004D500DE1080E4C5C0AE24CC020F05C5044
:1017A80002E1010E03D05C0402E1020E5C6E2050DF
:1017B8004C5E000E4D5A20EE01F02FD820C0DFFFFE
:1017C800480E0101576F040E586F4BB01AD00BD05A
:1017D80048C0F6FF19D8F76403D00800F55002D0C6
:1017E800DCEC09F01FD82050F3E1120048C0F6FFE6
:1017F8000BD8F76403D00800F55002D0DCEC09F0F0
:1018080011D82050F3E1120049C0F7FFF86A57C118
:10181800D9FF58C1DAFF070E12004050D9264150AF
:10182800DA221200DF6E484A492A0101574B582B29
:101838002006120060984BBE18D0010134AF0BD0BF
:10184800020E5A6E0001FD5102E17FEC11F0000119
:10185800FF6B586A120023D80C0EDF6EB3EC0AF047
:1018680071EC0EF0040E69EF0EF0040140AF0CD0DD
:10187800010E5A6E0001FC5102E17FEC11F026D8EE
:10188800D8A4120089EF0FF0020E5A6E08D8DF6E46
:10189800B3EC0AF01BD802E189EF0FF0120020EE3A
:1018A80001F05050D9265150DA22080EDF6E20EE92
:1018B80002F05050D9265150DA22400EDE6E040E46
:1018C800DD6E50C0D9FF51C0DAFF040C0001FF6B78
:1018D800586A57501200C00E6015686F7F0E611568
:1018E800696F6A6B6B6B60513F0B6C6F68C02FF050
:1018F80069C030F06AC031F06BC032F06CC033F0B0
:1019080064C034F065C035F066C036F067C037F0A3
:1019180082EC0EF0000167516CC03EF03F6A3E2633
:10192800000E3F223FBE000C3F5004E1410E3E5CDA
:10193800D8A01200400E68252F6E000E6921306E67
:10194800000E6A21316E000E6B21326E336A64C05C
:1019580034F06C51655D3E6E000E66593F6E400E68
:101968003E24356E000E3F20366E6C516725C00F41
:10197800376E82EF0EF0286E0001F251F31104E089
:101988008CEC07F0DFBE1200F451F51104E038ECDE
:1019980005F0DFBE1200FAC029F0F769F96B566A44
:1019A80008C198F409C199F40AC19AF40BC19BF4CF
:1019B800010E04019C6F030E0001FA6F1AD0020E8B
:1019C80004019C6F020C23D810D021D80AD035EC22
:1019D80013F0BAEC01F0020E291807E14CEC05F0FF
:1019E80004E051EC05F00FEF0DF0010E206E0FEF43
:1019F8000DF02850010AE3E0030AF7E0010AE3E0EA
:101A0800070AEFE0010AE1E07A0AE1E01200020EBB
:101A180004019C6F020C256E25500BE153EC0CF071
:101A28000C0EDF6EB3EC0AF071EC0EF0040E69EFE9
:101A38000EF02550040DF3CF21F0F4CF22F0205002
:101A4800020DF3502126F4502222D8902136223656
:101A5800D89021362236000E2124266E040E22202C
:101A680016D82050216E226AD89021362236255069
:101A7800236E246A19D8215023262250242214D8F0
:101A8800040E2324266E040E242001D8000C276E91
:101A980026C0D9FF27C0DAFF000EDB8426C0D9FF95
:101AA80027C0DAFFDB8E000CD89023362436D89076
:101AB80023362436120004014039E832030B25E0AE
:101AC80012004B8E080E0001FE6F080C5D0E486E6A
:101AD800496A4B80010E4C6E4B8E010CBA0E4425A0
:101AE800486E496A010E4922F4D74B8EBA0E442536
:101AF800D96EDA6A010EDA2242C4DFFF12002D6ABB
:101B0800020EDAEC13F0C9EF0EF0415102E1C5EF15
:101B18000FF0010A02E154EF05F0020A02E154EF66
:101B280005F0060ACEE0030A02E18DEF09F0010A8A
:101B3800E6E00F0ACBE0010A02E1A9EF0DF0030A83
:101B4800CDE0010AD2E0070A12004B8EF9EC08F04A
:101B580038D8B9EC13F0206A040E216E55EC0AF05F
:101B6800B9EC13F0608C366A4D0E3624FCEC08F0A4
:101B780036240AEC09F0362A030E3664F5D7BA0E75
:101B8800206E010E1ED8B9EC13F0609C10EC09F021
:101B9800000E4E6E040E1CD842C45DF05D5004E188
:101BA800100E0001FE6F100C2D6A010E2C6E5D0EDA
:101BB8002E6E20EC08F0C9EC0EF0200E0001FE6F2E
:101BC800200C216E236A226A256A030E246E030CF8
:101BD8004F6E4EC050F04FC051F01200C951C8119D
:101BE800C71104E1020EC65DD8A0000CC951C81186
:101BF80005E1040EC65D010EC75901E3000C020E93
:101C080031D809E1CAC020F0CBC021F0CCC022F005
:101C1800BCEC14F0010C030E25D809E1CAC020F071
:101C2800CBC021F0CCC022F0BAEC14F0010CCF6B81
:101C3800D06B0001CF51CD6FD051CE6FCF4BD02B91
:101C4800CE51E8E1400ECD5DD8B0010CCAC0D9FF35
:101C5800CBC0DAFFCA4BCB2BDF50D4EC01F0000924
:101C6800E8E1010CC619C711C811C911120035D80D
:101C7800000EDFBC010E216E040E401A080E000192
:101C8800FE190AE1040142517F0B636E6350100E86
:101C9800D8B4040E0001FE6F5A0412E129D822D8E4
:101CA800CAEC0BF0020E5C1803E117D8040E0DD035
:101CB800215003E112D8480E08D00FD8080E05D0DD
:101CC800010134BF349F5A6A1200DF6E40C0D9FF49
:101CD80041C0DAFF000EDB8E000C40C0D9FF41C0C6
:101CE800DAFF1200DA22480EDE6E040EDD6E040CF6
:101CF80020EE02F04050D926415012003D6A335080
:101D08003D5C20E3375033C038F0396A3826000E7E
:101D180039223D503A6E3B6A38503A5C3B50800A53
:101D28003C6E3950800A3C580DE235C0D9FF36C0A8
:101D3800DAFF34503D24E16EE26ADFCFE7FF354A2F
:101D4800362A13D034503D24D96EDA6A3D502F24F8
:101D5800206E000E3020216E000E3120226E000E03
:101D68003220236E8DEC14F0DF6E3D2A3F0E3D6469
:101D7800C6D72FC025F030C026F031C027F032C0BA
:101D880028F034C029F03AEF10F01CD00001F651C9
:101D980008E1010E206E0FEC0DF051EC05F00FEF8D
:101DA8000DF03BC134F03CC135F034502E182EE113
:101DB80035502F18D8A4120061EC0BF00BEC0FF083
:101DC8006AEF0BF02CC032F02DC033F0335004E032
:101DD8007F0AD8A4120018D03250010A02E196EF07
:101DE80014F0030AD8B41200010A02E11EEF0BF046
:101DF800060ACCE0770AD8B41200010AD8B4120057
:101E0800070AD8A4010A1200321C12001200246E1C
:101E1800205004E0245000EC06F003D02450F8ECE5
:101E280005F0DECF25F0DDCF26F02550261003E1A2
:101E3800206A216A120020EE02F026D821C0DEFFB7
:101E480022C0DDFF20EE01F01FD823C0DFFF17D826
:101E5800400EDF1614D8000EDB8611D8DB8E20501A
:101E680004E0245000EC06F003D02450F8EC05F010
:101E7800040EDF1A25C020F026C021F0040C25C06E
:101E8800D9FF26C0DAFF12002550D9262650DA22BB
:101E98001200256E266A040E276E2050216E226AD3
:101EA800D890213622362550236E246A22D8215014
:101EB8002326225024221DD82350262624502722A8
:101EC8001FD8DF9E205004E12550F8EC05F003D020
:101ED800255000EC06F026C0DEFF27C0DDFF10D835
:101EE800DF9C20EE04F02650D9262750DA22DF8C1A
:101EF8001200D89023362436D89023362436120080
:101F080026C0D9FF27C0DAFF12005850D8A4120003
:101F1800010E586E0001FF51D8A41200010EFF6F88
:101F2800020E5A180AE120EE01F011EC0CF0DF6AFB
:101F380071EC0EF0480E69EF0EF05A04D8A41200A6
:101F48000101606B20EE01F013D8AEEC0AF010D856
:101F5800400E13D89DEC13F0DF6E9DEC13F0000ECD
:101F6800DB8E010E606F53EC0CF0800EDF6E800C80
:101F78004E50D9264F50DA221200DE6E040EDD6E66
:101F8800040C0401486B496B23D04B8E4881010136
:101F9800610525E10401488322D04B8E20D04B8E69
:101FA80044BF05D044510F0BF8EC05F004D0445160
:101FB8000F0B00EC06F0DECF20F0DDCF21F017D8B4
:101FC800DFAE0DD014D8DFA40AD0010E486F07D0B9
:101FD80040511F0BDAE0010AE0E0030AE0E04BAEF3
:101FE80012006FEC0BF04B80020E4C6E020C20C0FE
:101FF800D9FF21C0DAFF1200BCEC12F0010E5AEC36
:1020080014F00001EF6FEF512AE0010E5AEC14F0C2
:102018000009FBE1A5EC08F04EEC14F020D095EC9B
:1020280007F0200E0001FE6101D019D060B217D070
:10203800ACEC14F000090BE1010E5AEC14F00009A5
:1020480006E0606A646A0001FE6BEF6B06D0020E60
:1020580024EC14F0010E32EC14F0B5EC14F000018D
:10206800EF51DDE100EF18F055EF00F0C00E251438
:102078002A6E7F0E26142B6E2C6A2D6A2A5025187C
:102088002EE12B5026182BE12C50271828E12D5033
:10209800281801E0120025C020F026C021F027C032
:1020A80022F028C023F052EC13F027C0F8FF26C016
:1020B800F7FF25C0F6FF2E6A29502E24D96EDA6A5A
:1020C800DF50F56E3F0E2E1802E10C0001D00D0016
:1020D8002E2A3F0E2E64F0D7000EFAEC12F01200F2
:1020E8002050226E21502ED82350095924500A59C5
:1020F80025500B5907E2B4EC01F008C1F0F009C112
:10210800F1F012000001F051205CF151215804E275
:1021180020C0F0F021C0F1F0F051226EF15112D838
:102128000401986F2350010109590401996F245043
:1021380001010A5904019A6F255001010B59040144
:102148009B6F1200236E246A256A22500101085DE4
:102158001200E9CF03F0EACF04F0E1CF05F0E2CFB7
:1021680006F0D9CF07F0DACF08F0F3CF09F0F4CFB3
:102178000AF0F6CF0BF0F7CF0CF0F8CF0DF0F5CF53
:102188000EF004EC18F00EC0F5FF0DC0F8FF0CC0FF
:10219800F7FF0BC0F6FF0AC0F4FF09C0F3FF08C041
:1021A800DAFF07C0D9FF06C0E2FF05C0E1FF04C09F
:1021B800EAFF03C0E9FF02C0FBFF01C0FAFF5F921C
:1021C80011002D0E596E5EC03DF0FD0E3D1629E141
:1021D800D8905E303F0B040D000EF3244E6E040EB3
:1021E800F420ECEC0DF0040E501A9DEC13F0DF30E7
:1021F800E8320F0B0D0A02E0F1EF13F0400E206EEB
:10220800040E216E20EE02F0BCEC0FF0DECF22F0BF
:10221800DDCF23F0256A080E246E51EC12F029EF69
:1022280012F05E50FD0B040AD8B43BEC0EF012001D
:10223800AFEC14F0000904E1B2EC14F0DBEC12F09E
:10224800B4C020F0B5C021F0B6C022F0B7C023F06A
:1022580013EC14F0000901E11200010E01015F6F97
:102268000001B751B61103E1800EB55D05E3B8C0B2
:1022780020F0B9C021F01200B4C06DF0B5C06EF006
:10228800B6C06FF0B7C070F0B8C071F0B9C072F0E6
:10229800BAC073F09CEF12F002EE00F0800EEE6A06
:1022A800E806FDE101EE00F0BD0EEE6AE806FDE18C
:1022B80000EEF0F0100EEE6AE806FDE100EE40F0E8
:1022C8001F0EEE6AE806FDE1CC0EF66E280EF76EDC
:1022D800000EF86E01EEBDF010EE14F00900F5CF17
:1022E800EEFFE550E150FAE15F905F92000EF86E64
:1022F800000100EF10F0FC6BFD6B020E5A1813E1A1
:1023080020EE01F0A9EC0AF0AEEC0AF0A9EC0AF014
:10231800480EDE6E040EDD6E50C0D9FFBAEC0AF02E
:10232800B3EC0AF0000C4C500401465D4D5047597F
:1023380004E246C44CF047C44DF0CAEC0BF07CEC08
:102348000EF076EC0EF071EC0EF0480E69EF0EF020
:1023580020C026F021C027F011D02406D8A02506D9
:1023680022C0F6FF23C0F7FF224A232A17D8264A9D
:10237800272A0800F5CFDFFFDF5008E0245025109A
:1023880005E0EBD70BD8DF6A264A272A2406D8A00F
:1023980025062428F7E12528F5E1120026C0D9FFF3
:1023A80027C0DAFF12002AC020F02BC021F0236AD0
:1023B800226A020E256E246AB9EC13F02C50D8A4B8
:1023C80012002AC020F02BC021F0700E226E2F0EB2
:1023D8000ED851EC12F0200E2A24206E000E2B206D
:1023E800216E900E226E2F0E02D851EF12F0236E3E
:1023F800256A200E246E200C28C020F029C021F068
:1024080055EC0AF0B9EC13F02A50D8A4120028C0F1
:10241800D9FF29C0DAFFF80EDF6E20EE01F00FD8E1
:1024280020EE02F00CD820EE03F009D820EE04F0DC
:102438002850D9262950DA220F0EDF6E0F0C2850AB
:10244800D9262950DA22DF6812005C6A576A00012F
:10245800FC6BFD6B0101606B5A6A71EC0EF018D8C9
:1024680071EC0EF015D850C0D9FF51C0DAFF7F0EBD
:10247800DF164B6A4C6A4D6A15EC09F05FEC0DF0FB
:102488002D6A030EDAEC13F0C9EC0EF01EEF0CF017
:102498007F0EDF16040E401A040C22C028F023C059
:1024A80029F020C026F021C027F016D028C0F6FF5A
:1024B80029C0F7FFF86A26C0D9FF27C0DAFF070E40
:1024C800F76403D00800F55002D0DCEC09F0DF6EA9
:1024D800284A292A264A272A2406D8A02506242855
:1024E800E5E12528E3E1120013D035EC13F0215182
:1024F800F00B0209216F3A0E2B6F2C6B57EF00F08F
:10250800010E04019C6FC9EF01F07F0EBFEF0CF0C4
:102518000001F751F5E0030AE8E0110A02E157EF7C
:1025280000F00C0AEDE0E30A02E157EF00F0EDD706
:102538006DC020F06EC021F06FC022F070C023F093
:1025480013EC14F0000901E112006DC060F06EC0D8
:1025580061F06FC062F070C063F0740E0001646FC8
:1025680071C065F072C066F073C067F06FEF0CF071
:10257800800E9B6E700ED36E100ED26ED2AEFED74A
:10258800900EB56E010E32EC14F0020E24EC14F02D
:10259800010E40EC14F0020E40EC14F0010E70EC49
:1025A80014F002EC14F04EEC14F0A5EF08F02968D2
:1025B8002F0E2A6E2B6A2C6A29C025F02AC026F015
:1025C8002BC027F02CC028F0A2EC13F0200E2926EF
:1025D800000E2A222B222C222C502B1003E1800ED5
:1025E8002A5CEAE3010E01015F6F010C216E000E07
:1025F800F2BE010E226EA68E215003E0206A202A28
:1026080001D0206A203A20462046A6502018BF0B49
:102618002018A66EA68467EC13F0A69422B002D008
:10262800F29E01D0F28E000C216E17D8DF6001D027
:10263800000C13D8DF5E2150D96EDA6A090EDF6408
:1026480005D02150D96EDA6A070EDF5E2150D96EA7
:10265800DA6A0F0EDF64010C000C2150D96EDA6AB9
:10266800300C01011F51800B70091F6F1F9F206BD9
:10267800F00E2117219B219D219F226B236B246B38
:10268800256B0A0E266F276B286B296B2A6B2B6B21
:102698002C6B2D6B2E6B2F6B306B1200000EF2BE65
:1026A800010E246E22C0F8FF21C0F7FF20C0F6FFFC
:1026B800A68EA69CA684A68806D824B002D0F29E30
:1026C80001D0F28E1200F29E550EA76EAA0EA76ECA
:1026D800A682AA0C2B6E28A404D0206A2B504DEC9D
:1026E8000FF028A205D0010E206E2B504DEC0FF0F4
:1026F8006A0E2B24296E2A6A0F0E2A2229C0D9FFB6
:102708002AC0DAFF28C0DFFF0F0C6AA010D011D84A
:10271800800EDE180BE171EC0EF0840EDE1806E177
:1027280008D80C0EDF6E05D8000EDB8E6A90659A0D
:1027380012004EC0D9FF4FC0DAFF120025C020F0AA
:1027480026C021F027C022F028C023F013EC14F093
:10275800000901E1120025C020F026C021F027C0A1
:1027680022F028C023F052EF13F020C026F021C039
:1027780027F008D026C0D9FF27C0DAFF22C0DFFF24
:10278800264A272A2406D8A025062428F3E1252846
:10279800F1E11200648465986082010E0101626FA4
:1027A800636B2D6A750E02D8C9EF0EF02C6E2E6A77
:1027B8002F6A316A306A12000101626B2D6A740E49
:1027C800DAEC13F0C9EC0EF06092649401D06594D1
:1027D80065B4FDD70101636B1200020E5A1802E1BD
:1027E80060EF0AF05A6A605107E153EC0CF00C0EE6
:1027F800DF6EB3EC0AF0000C606B12000F015D9DF8
:102808005D9F948E948C240EAC6E900EAB6E700E01
:10281800AF6E020EB06E080EB86EAE501200246A8B
:102828002350221003E1300E215C08E323502210CC
:1028380005E1800E215C02E2010E246E2450120094
:10284800206E04D08A8E12008A8C12002050D8B4D0
:102858001200010AF7E0030AF7E01200206E04D024
:102868008A9E12008A9C12002050D8B41200010AD5
:10287800F7E0030AF7E01200206E04D0939E1200DE
:10288800939C12002050D8B41200010AF7E0030A02
:10289800F7E01200650E206E010E23EC03F0400EE7
:1028A800246EB9EC13F00101646B1200206E03D0A2
:1028B80081BC010C000C2050D8B4000C010AD8A42B
:1028C800000CF6D7F4283A2950297C29EE137229EE
:1028D800E41B000000000000206E02D0938C120060
:1028E8002050D8B41200010AF9E01200B681020E95
:1028F800B86FB76BB56BB50E206E010E216E120066
:1029080001016251D8A41200632B6351D8B46369E2
:10291800120022C0F8FF21C0F7FF20C0F6FF080010
:10292800F55012001E0E286E010E6EEC13F074EFB7
:102938000BF0030E206E010E216E226A236A000C32
:10294800B7EC14F0646B1200020E216E206A000CC2
:1029580001016451120001015F511200010E5F6F05
:10296800010C60EF04F05F6B1200000C1200120003
:062978001200510C010CDD
:102E200000DC2F182FDE2EB02F2B2E09026200039C
:102E30000102C032090400000208065000070581A3
:102E40000240000107050102400001080B010202D7
:102E50000201000904010001020201000524002012
:102E600001042402020524060102052401000207D0
:102E70000582030A000209040200020A000000079A
:102E8000050302400000070583024000003C6D6519
:102E9000746120687474702D65717569763D227255
:102EA0006566726573682220636F6E74656E743D2B
:102EB00022303B55524C3D27687474703A2F2F6D69
:102EC000706C61627870726573732E6D6963726F76
:102ED000636869702E636F6D2722202F3E003A03CE
:102EE0004D006900630072006F00630068006900B4
:102EF0007000200043006F006D0070006F007300D1
:102F000069007400650020004400650076006900D7
:102F1000630065000000000034034D006900630099
:102F200072006F00630068006900700020005400A8
:102F30006500630068006E006F006C006F00670042
:102F40007900200049006E0063002E00008004021A
:102F5000200000004D6963726F6368704D61737388
:102F60002053746F7261676520202020303030312B
:102F7000502D5354415232354B353008000020104B
:102F80004748474800002010474800000000000064
:102F9000524541444D45202048544D20000020100A
:102FA00047484748000020104748020051000000F1
:102FB0001A03310032003300340035003600370088
:102FC0003800390030003900390012010002EF02E8
:102FD0000108D80457000100010203010403090499
:102FE000502D5354415232354B3530004641543107
:0F2FF00032202020004D53444F53352E30000027
:020000040020DA
:08000000FFFFFFFFFFFFFFFF00
:020000040030CA
:0E00000021081F3EFFD181FF0FC00FE00F400F
:00000001FF
