:0400000015EF00F008
:060008005E8219EF14F006
:100018005E80E0CF01F08CEF15F001C0E0FF5E904C
:10002800100013EF11F03DD17FEC06F00009D8A4C1
:1000380012006BD1D5EC02F00009FBE01200E705D5
:10004800F8E012C1CDF013C1CCF0CCC00CF0CDC09B
:100058000DF00E6A0F6A4EEC0AF0000901E012007A
:10006800036A240E026E16EC10F0D00E026E040E17
:10007800036E4C0E046E2A0E056E076A240E066E79
:10008800B6EC11F0FD0E0001E66FFD0CF3C102F0B5
:10009800F4C103F021EEE7F001D80AD00500FA6EAA
:1000A800DE50FD6EDE50FE6EF850FF6EFA50120004
:1000B80002C0A7F003C0A8F004C0A9F005C0AAF0C8
:1000C800F3C102F0F4C103F021EEE9F001D80AD03F
:1000D8000500FA6EDE50FD6EDE50FE6EF850FF6EC3
:1000E800FA50120002C0A3F003C0A4F00001A56BEF
:1000F800A66B24EED0F0AAC0DFFF24EED1F0A9C091
:10010800DFFF24EED2F0A8C0DFFF24EED3F0A7C0B3
:10011800DFFF24EED4F0A6C0DFFF24EED5F0A5C0A3
:10012800DFFF24EED6F0A4C0DFFF24EED7F0A3C093
:10013800DFFFCD6B080EECD816EC10F0A3D7E7055F
:1001480001E177D7CD6B120EE3D816EC10F0000161
:10015800AB6B1F0EAB25D96EDA6A010EDA22D00E10
:10016800AB25E16EE26A040EE222DFCFE7FFAB2B9C
:10017800110EAB65EED786D7030EE8CFD0F4000E8C
:10018800E8CFD1F4CCEC03F001D80AD00500FA6E20
:10019800DE50FD6EDE50FE6EF850FF6EFA50120013
:1001A800000904E10001A06BA16B04D00001A16B60
:1001B800800EA06F24EED2F0A0C0DFFF000EE8CFC3
:1001C800D3F4CD6B040EA4D816EC10F05BD7010164
:1001D8008DD8A2D885D899D00C6A0D6A0E6A0F6A94
:1001E8004EEC0AF0000901E01200010121510F0B49
:1001F800060A04E104019C0501E11BD79BEC12F0FF
:10020800E9D76ED882D0CE51CF1104E020EC07F0A8
:10021800DFBE120001010B510A11091103E1400E62
:10022800085D05E3400E0001A26F68D806D008C13A
:10023800A2F0086B096B0A6B0B6B0001A251586E98
:10024800596A5850CC5D5950CD5905E3A251CC5F3D
:10025800000ECD5B12D0AB6B0DD0CC51CD1104E0AC
:10026800CC07D8A0CD0705D0D00EAB25DEEC04F026
:10027800DF6AAB2BA251AB5DF0E3010E026ED00E2C
:10028800036E040E046EA2C005F0010E23EC0FF0FD
:10029800D4EC04F00101D9EC04F0CFD67F0E50EF76
:1002A8000CF00001E65198E0030A01E148D7110A71
:1002B80001E1C5D6080A01E15FD7010AA2E0050AF3
:1002C80086E03B0A01E1E2D60D0A01E1ADD6020A59
:1002D80001E1B0D6050A95E0D20A95E0030ADED717
:1002E8000401986B996B9A6B9B6B12002151F00B70
:1002F8000509216F200E2B6F2C6B12000101085F7E
:10030800000E095B0A5B0B5B000C0001E66912003A
:10031800CC6F036A026E1200010E04019C6F010C7F
:10032800456E21D10D0E451801E12FD10A0E451851
:1003380001E12BD13A0E451801E0000C010EE26FE5
:100348005D6AC46BC56BC66BC76BDE6B010C450E73
:100358007EEC12F0000903E10001E26B000C5D2A5B
:100368005D0402E145C0DFF0020E5D1801E00DD129
:100378000001DF51100DF3504524DF6FDF51DE27F8
:100388005D6A100EDF6501D0E7D7020E5CD0450E1E
:100398007EEC12F00009E0E05D2A5D0407E14550BB
:1003A8000001C46FC56BC66BC76B010CC4C03DF0C0
:1003B800C5C03EF0C6C03FF0C7C040F0040ED8909C
:1003C8003D363E363F364036E82EF9D745503D2477
:1003D8000001C46F000E3E20C56F000E3F20C66F9F
:1003E800000E4020C76F040E5D1801E0CED0C55145
:1003F800C425DE275D6A030E26D0450E7EEC12F07A
:100408000009AAE05D2A5D0402E14550A5E1020E5B
:100418005D1801E0BAD045C0E1F045500001DE2783
:100428005D6A040EE26FE06BCD0E026E010EB4D869
:10043800100E066E1FEC13F00001E15101E1A5D08A
:10044800E10503E1050EE26F010C040EE11901E17B
:100458009CD082D7450E7EEC12F0000901E17CD7D2
:100468005D2A5D0406E1CD0E000190D84538F00BF9
:10047800DF6E020E5D1801E088D05D6ACD0E0001C6
:1004880085D84550DF26CD0E81D8DF50DE27E02BFA
:10049800DF51E019D7E0010C450E7EEC12F000099F
:1004A80001E15AD75D2A5D0404E14538F00B0001EB
:1004B800DE27020E5D1869E15D6A45500001DE27FE
:1004C800DE5101E049D7E26BE1511CE1C451010161
:1004D8004125366E0001C55101014221376E0001E8
:1004E800C65101014321386E0001C7510101442161
:1004F800396ECD0E3A6E010E3B6EDFC03CF086ECD5
:1005080010F0010C040EE11923E1CEC13DF03E6A62
:100518003F6A406A3EC040F03DC03FF03E6A3D6AD7
:10052800CDC141F0426A436A446A41C044F0436A1B
:10053800426A416A3D5041240101416F3E504220C8
:10054800426F3F504320436F40504420446F010C9A
:10055800E105D8A4000C11EC14F00101416B426BC9
:10056800436B446B010C0001E25101E1DBD6010A47
:1005780001E1EDD6030A01E10AD7010A01E13DD7FD
:10058800070A01E167D7010A87E0010CE025D96E67
:10059800DA6A010EDA221200036E056A0468076A35
:1005A8001200C3D0E1D8536ECD51546E556A566AC5
:1005B800090ED8905336543655365636E82EF9D7A4
:1005C80053C00CF054C00DF055C00EF056C00FF0DB
:1005D8004EEC0AF0000919E1DBD801D80AD0050071
:1005E800FA6EDE50FD6EDE50FE6EF850FF6EFA5069
:1005F800120000090DE0010EC5D80709EBD8E8EC98
:1006080004F0FFEC0BF00001E96B0001E951120066
:10061800010E0001EA6FCC51CD11F5E0030EE96F30
:10062800D4D8C5D8DD6B0401E3EC04F010E0000178
:10063800D051D11104E0CFEC04F0DFBEE6D7000EB4
:10064800AED823EC0FF0FEEC0AF0040E5DD0A0D873
:1006580001D80AD00500FA6EDE50FD6EDE50FE6E3F
:10066800F850FF6EFA501200000904E0010E8AD813
:100678000209B0D8020E48D0D051D11104E0CFEC15
:1006880004F0DFBEC2D704019C512BE1F3C146F050
:10069800F4C147F0010E0001C825486E000EC921BB
:1006A800496E000ECA214A6E000ECB214B6ED00E49
:1006B8004C6E040E4D6EDD2BDD054E6E21EEF1F015
:1006C80001D80AD00500FA6EDE50FD6EDE50FE6ECF
:1006D800F850FF6EFA501200E80603E0010E52D8F7
:1006E8007ED832D80101085F5550095B56500A5B25
:1006F80057500B5B29D80401985F5550995B5650A9
:100708009A5B57509B5B030E000105D058D8CC0765
:10071800D8A0CD07010EE96F78D7020E04019C6FAF
:10072800E8EC04F0FFEC0BF06ED70001E95101E1B1
:1007380039D7010A01E16FD7030AE8E0010A01E1AC
:1007480072D7070A99E0E9D7000120EE01F0D051ED
:10075800D926D151DA22DF50536E53C054F0556A6E
:10076800566A576A5450120011C1CBF012C1CAF030
:1007780013C1C9F014C1C8F016C1CDF017C1CCF02F
:10078800CC51120004019C6F01012151F00B1200A1
:10079800F3C102F0F4C103F021EEEFF01200026E93
:1007A800DAC003F0DBC004F0400E056E010C040152
:1007B800986B020E996F9A6B9B6B0001020CC82B09
:1007C800000EC923CA23CB23000CD00EDA6F040E07
:1007D800DB6F040C216F270E2B6F2C6B12000309A3
:1007E800216F2B6B2C6B1200200E0001F11901E117
:1007F800C8D01200D051D11103E0CDD8DFBE12000D
:10080800B56B500EB525D6D8000EB525E16EE26A57
:10081800010EE222DFCFE7FFB52B1E0EB565F1D73B
:1008280020EE01F0D051D926D151DA221F0EDE1860
:1008380055E1550E0101001951E1530E01194EE120
:10084800420E02194BE1430E031948E1010E000163
:10085800E56F01010D513DE1110E0E613AD00E51C7
:1008680038E00CC15AF03F0E5A1633E1550E040118
:10087800906F530E916F420E926F530E936F04C197
:1008880094F405C195F406C196F407C197F4986BE2
:10089800996B9A6B9B6B9C6B0001E669E86BE96B43
:1008A800030E01010F1904E0F00E21172B6B2C6BBE
:1008B800010E0CAF020E0001EA6F010176D803E0C9
:1008C8000001E76B03D0010E0001E76F0FC1E6F0EE
:1008D8001200010E026EFFEC0BF050D0010E026EFA
:1008E800FFEC0BF071D8FFEC0BF00001E56B120088
:1008F80015EC09F0FF0AD8A41200030E0001EA6FF4
:10090800030C15EC09F0FF0AD8A4120004019C514D
:10091800F4E155D8F2E0020E9C6FEFD7B8C0B1F001
:10092800B9C0B2F0B151B2110AE0B8C0B3F0B9C061
:10093800B4F0B3C0D9FFB4C0DAFFDFBE1200010EB5
:10094800026E900E036E040E046E0D0E056E010EFF
:1009580023EC0FF025D80001D051D11103E01BD8AA
:10096800DFBE06D0F5EC0AF023EC0FF0FEEC0AF03F
:100978000001EA6B1200EA6B9CEC0CF025D8FFEF43
:100988000BF0EA5101E136D7010AB2E0030AB9E0F7
:10099800010AC4E0F0D7D0C0D9FFD1C0DAFF1200F5
:1009A80002C0CEF003C0CFF01200085109110A119D
:1009B8000B111200D96EDA6A040EDA22040C98516F
:1009C80099119A119B111200000E026E010C04017C
:1009D80042050FE140511F0B0CE10001C18F030ECE
:1009E8000401411904E1010E0001EB6F02D000017E
:1009F800EB6B04014251D8A4120040511F0B020AAC
:100A0800D8A4120044510F0BD8B4120044510F0B54
:100A1800186E040E1860040C200E0001F119D8A4F9
:100A28001200C18F040144BF06D044510F0B75D882
:100A3800A3D886D806D044510F0B77D89DD84451F7
:100A480088D81920DA6EDF501C6E1CB002D01D94B5
:100A580001D01D8444BF04D044510F0B5ED803D08D
:100A680044510F0B62D81DC0DEFF1EC0DDFF030E10
:100A7800411913E160D8DFAE0AD044BF02D060D874
:100A880002D0445166D81920DA6E0101DF8253D8AA
:100A9800000EDB8450D8DB8E000C040E1D1A4BD8D8
:100AA800DFAE0AD048D87F0EDF1645D8000EDB8CA3
:100AB80058D8E1EC0EF003D03ED8000EDB8C040EC3
:100AC8001D1A1CB203D037D8DFAE12D0040144BFC0
:100AD80002D036D802D044513CD81920DA6E010130
:100AE800DF9229D83B0EDF163CD8E1EC0EF003D09C
:100AF80022D83B0EDF16040144510F0B186E196AF9
:100B08006A0E18241A6E0F0E19201B6E1AC0D9FF10
:100B18001BC0DAFFFE0EDF16FE0C020D390EF324A1
:100B2800D96E010EF420DA6E1200020DF350B60FE2
:100B3800D96EDA6A12001DC0D9FF1EC0DAFF120092
:100B480044510F0B186E196A490E1824D96E010EFC
:100B580012000F0B186E196A450E1824D96E010E73
:100B680012000F6A050E0E6E1DC010F01EC011F0A7
:100B7800136A020E126E020CDECF1DF0DDCF1EF0DE
:100B880012000CC002F00DC003F0DFEC09F01FECFE
:100B980013F00E5001E093D00CC0D9FF0DC0DAFF5E
:100BA800EB0EDF6E20EE01F096D83C0EDF6E20EEE5
:100BB80002F091D8900EDF6E030E92D8F50E046EF7
:100BC8002A0E94D8B6EC11F020EE0BF084D8DF6A28
:100BD80020EE0CF080D8020EDF6E20EE0DF07BD8F0
:100BE800010EDF6E20EE0EF076D8010EDF6E20EEDD
:100BF80010F071D8010EDF6E20EE11F06CD8100ED7
:100C0800DF6E20EE15F067D8F80EDF6E20EE16F0D6
:100C180062D8010EDF6E20EE18F05DD83F0EDF6E51
:100C280020EE1AF058D8DF6820EE1CF054D8010ED8
:100C3800DF6E20EE20F04FD8030EDF6E20EE21F09D
:100C48004AD8010EDF6E20EE22F045D8DF6A20EE8A
:100C580023F041D8DF6A20EE24F03DD8DF6A20EE89
:100C680025F039D8DF6A20EE26F035D8290EDF6E58
:100C780020EE27F030D8320EDF6E20EE28F02BD889
:100C8800670EDF6E20EE29F026D8940EDF6E20EE78
:100C98002AF021D8C40EDF6E2B0E22D8E00E046E87
:100CA8002A0E056E076A0B0E066EB6EC11F0360EAC
:100CB80017D8EC0E046E2A0E19D8B6EF11F0070EED
:100CC8000E6001D0070C20EE3EF005D89BEC08F032
:100CD80002D8A0EF08F00C50D9260D50DA221200E5
:100CE8000C24026E000E0D20036E1200056E076ABA
:100CF800080E066E080C90D0B8EC03F01A6ECD51B1
:100D08001B6E1C6A1D6A090ED8901A361B361C36D3
:100D18001D36E82EF9D71AC00CF01BC00DF01CC008
:100D28000EF01DC00FF04EEC0AF0000901E081D072
:100D380088D8CC51CD1103E10001E86B7AD0CC07FB
:100D4800D8A0CD07020EE86FCE51CF1103E074D8BA
:100D5800DFBE6FD0E3EC03F0DBEC03F0DC6BE9EC17
:100D680003F0030EE86F0401E3EC04F002E169D834
:100D780060D0040E0001E86FCE51CF1103E05CD8BB
:100D8800DFBE57D0F3C10FF0F4C110F0C8C011F0A6
:100D9800C9C012F0CAC013F0CBC014F0D00E156E43
:100DA800040E166EDC2BDC05176E21EEEDF001D873
:100DB8000AD00500FA6EDE50FD6EDE50FE6EF85069
:100DC800FF6EFA501200E8060AE0020EC6EC03F0C5
:100DD800F3EC03F0010E026EFFEC0BF0ADD7010E41
:100DE800D3EC03F023EC0FF0D4EC04F0030E000175
:100DF800E86F400E82EC01F0400E0401985F000E8F
:100E0800995B9A5B9B5B15D0020E04019C6F010EE7
:100E1800026EFFEC0BF090D70001E85101E16CD7AE
:100E2800010A87E0030A90E0010A9DE0070AA4E0AE
:100E3800EBD70001E8511200CEC0D9FFCFC0DAFFCE
:100E48001200010E0001E86F010C0001F1510BE1E5
:100E5800606A646A17EC08F001D0608660A6FDD766
:100E6800010E0001F16FF10508E160BA06D0656A6C
:100E7800646A64806488020EF16F65B464A403D068
:100E880065948AEC13F060A202D0A494120065B0B5
:100E980064A005D0BBEC07F0040EF16F659065B84F
:100EA80064A802D046EC13F065AC13D064AC07D04C
:100EB8000F6A730E0E6E106A55D8E1EC0EF0659C41
:100EC800F1EC13F0F45101E0F407F45102E1A1EC64
:100ED8000FF065BA64AA02D0EFEC12F065B264A212
:100EE80008D07F0E0F6E0E68106A3CD8E1EC0EF049
:100EF800676A040E0001F16102D0A494040C64A690
:100F08002FD0206A65A62CD061CFFBF00001FB3101
:100F1800E832E8320F0BF86F6596FBB506D0490E3C
:100F2800F825D96EDA6A010E05D0450EF825D96E76
:100F3800DA6A010EDA22DF700001F85103E14FECA2
:100F480010F00AD00F6A720E0E6EFB0E106E116A48
:100F5800136A126AE1EC0EF0202A030E2064D2D73D
:100F6800A4941200116A136A010E126E010CA39464
:100F7800676A656A6A6A4DD879EC0DF01FEC13F060
:100F880052D80A6A0A50040D000EF324D96E040ED2
:100F9800F420DA6EDE6ADE6ADE6ADD6A0A2A0F0E7D
:100FA8000A64F0D7608C636A6098609C659600015B
:100FB800C16B4CD865B6FAD7010E0001F26FF36F1A
:100FC800EE6BEF6BED6B0A6A0A5099EC05F0DE6A7E
:100FD800DD6A0A5091EC05F0DE6ADD6A450E0A24E6
:100FE8001BD80A242DD80A2A030E0A64EDD722D862
:100FF800160E6A6E040E0401036F400E026F080E8F
:10100800016F040E006F008F0001FA6BF56BF16B36
:1010180012006B0E026E0F0CD96EDA6A010EDA221C
:10102800DF6A490E1200160E626E9F0E666E7B0E08
:10103800646E7B0C080E0001B66F040EB76F040CCB
:10104800D96EDA6A010EDA22DF6A12000101346B06
:10105800356B366B12000AC002F00BC003F0DFECF0
:1010680009F01FEC13F0060E0C6001D0060C070EF9
:101078000C601ED020EE38F055D8F50EDF6E20EE4D
:1010880039F050D88B0EDF6E20EE3AF04BD8160EA2
:10109800DF6E20EE3BF046D8EA0EDF6E20EE3EF023
:1010A80041D8DF6A20EE3FF03DD8010EDF6E010C1B
:1010B8000AC0D9FF0BC0DAFF010EDF6E20EE01F087
:1010C80031D8DF6A20EE02F02DD8010EDF6E20EE57
:1010D80003F028D8070EDF6E20EE04F023D8DF686F
:1010E80020EE05F01FD8E60EDF6E20EE06F01AD8C7
:1010F800010EDF6E20EE0AF015D8030EDF6E20EE2B
:101108000BF010D8010EDF6E20EE0CF00BD8DF6A62
:1011180020EE0DF007D8DF6A20EE3EF003D807D89E
:1011280001D80AD00A50D9260B50DA221200550EDF
:10113800DF6E20EE3FF0550CAA0EDF6EAA0C800E73
:1011480004014019D8A41200C00E0001C16F45D097
:10115800CA0E0001BE6F2A0EBF6FC36B120EC26F9C
:10116800120C42511DE14251020D290EF324F66E74
:10117800290E4ED8020E00013FD8F76403D00800AC
:10118800F55001D033D80001C26F030E35D8F7648B
:1011980003D00800F55001D029D80001C36F120010
:1011A8000001C16B1200040E4261FAD74251020DD0
:1011B800210EF324F66E290E2BD8BEC0F6FFBFC051
:1011C800F7FFF86A070EF76403D00800F55001D05E
:1011D8000DD80001C26FC36B120004014351010A0C
:1011E800B7E0030ABEE0010ADEE0DAD7F6CFE1FF96
:1011F800F7CFE2FFE7501200BE25026E000EBF21B6
:10120800036E02C0F6FF03C0F7FFF86A070E12006C
:10121800F420F76E0900F5CFBEF00A00F5CFBFF055
:1012280012005AD801D80AD00500FA6EDE50FD6EB9
:10123800DE50FE6EF850FF6EFA501200000904E00E
:10124800010156D8DE040CE138D8AD1DAF6FAE1DD4
:10125800B06FAF51D217B051D317DDEC11F02AD0CF
:101268002CD8D251AD17D351AE17AD51AE1120E1E4
:101278003AD801D80BD005000101FA6EE551FD6E90
:10128800E651FE6EF850FF6EFA501200025003103D
:10129800E4E013D8AD51D213AE51D313010121515B
:1012A800F00B0609216F280E2B6F2C6B90EC01F0C8
:1012B80017EC00F00001E65112000DC1ACF0010E70
:1012C8000001AD6FAE6BAC2B03D0D890AD37AE3705
:1012D800AC2FFBD700011200F3C102F0F4C103F0F8
:1012E80021EEEBF01200F3C102F0F4C103F012009A
:1012F8000D51EC0FD96EDA6A12001150121013104A
:10130800141009E115C00AF016C00BF017C00CF054
:101318002FEC08F0010C110412101310141009E13D
:1013280015C00CF016C00DF017C00EF0C5EC05F096
:10133800010C020E46D809E115C00AF016C00BF0E0
:1013480017C00CF066EC11F0010C030E3AD809E155
:1013580015C00CF016C00DF017C00EF03DEC11F0E2
:10136800010C15C002F016C003F025D81FEC13F0CD
:10137800040E27D81FE12DEC14F03F0F3F0B176028
:10138800010C15C002F016C003F01750186E196A48
:10139800060ED89018361936E82EFBD78D0E18246D
:1013A800046E290E1920056E076A400E066EE8ECD9
:1013B80010F0010C010C056A046A076A400E066EFB
:1013C800400C1118121013101410120020EE01F026
:1013D800D7EC0FF0DF50036E03500101355D000EAE
:1013E800365902E235C103F00350355F000E365B13
:1013F800026A0DD0480E0224DEEC04F031C1E1FF90
:1014080032C1E2FFDFCFE7FF314B322B022A035014
:10141800025CF0E3355136111AE0000120EE01F0CC
:1014280023D827D821D8480ED3EC0FF003EC13F0BB
:10143800DFBC05D0D6C0D9FF28D820D8000CD6C02C
:10144800D9FFD7C0DAFF080EDF6E18D8000C0001EC
:10145800E8EC0BF0DF6E12D80101349F0001F05167
:10146800D8B4A1EC0FF01200D651D926D751DA2200
:101478001200080EDF6E20EE02F0080CD6C0D9FF6D
:10148800D7C0DAFF000EDB8E000CD7C0DAFF480E9B
:10149800DF6E480C0C500D100E100F1003E1010EFA
:1014A800116E01D0116A0001E70503E1110401E1A1
:1014B800000C0C500101081914E10D50091911E133
:1014C8000E500A190EE10F500B190BE10001EA0545
:1014D80004E12A0EE61905E0000C2A0EE61901E1DE
:1014E800000C010108510C5C09510D580A510E58A5
:1014F8000B510F5803E2010E106E01D0106A020E54
:101508000001EA1912E12A0EE61904E0115002E17D
:10151800050E15D0E70502E1010E11D0110402E114
:10152800040E0DD01004FCE0F3D72A0EE61902E1F0
:10153800030E05D0E705F0E0110403E1020E126E78
:1015480003D01004FBE0F4D7125050EC0CF012500A
:101558001200040140511F0BE80601E0120044513B
:101568003AE0120042514311D8A4120046514711E3
:1015780001E0120053EC0BF0010EE56F3BC109F0DE
:101588003CC10AF009500A100AE03BC10BF03CC10B
:101598000CF00BC0D9FF0CC0DAFFDFBE04D021D895
:1015A80023EC0FF027D8800E0001C16F800C425148
:1015B8004311D8A412004605471101E01200486BF8
:1015C800480E0001BE6F040EBF6FC36B010EC26FE1
:1015D800C10EC16FC10C4151FE0AE9E0010AC2E027
:1015E8001200000E026E500E036E040E046E400EC2
:1015F800056E010C02C0D0F003C0D1F01200F5EC6A
:101608000AF023EC0FF0FEEC0AF0B8C0CEF0B9C037
:10161800CFF045D8E76B010EE56FD26BD36B0101B4
:101628000D6B3AD07CEC09F0000EDF6E70EC09F01F
:1016380001D80AD00500FA6EDE50FD6EDE50FE6E4F
:10164800F850FF6EFA501200000923E077EC09F019
:1016580001D80BD005000101FA6EE551FD6EE65187
:10166800FE6EF850FF6EFA5012000250031011E09F
:101678000DC109F0010E0A6E0B6A092A03D0D89031
:101688000A360B36092EFBD70A500001D2130B502D
:10169800D3139BEC12F00D2B0D51C4E01200000186
:1016A800EA6BE669E86BE96B1200080E026E00014E
:1016B800C3510DE1080EC25D0AE2C2C002F0F95141
:1016C80002E1010E03D0F90502E1020EF96F0250A2
:1016D800C25F000EC35B20EE01F02ED802C0DFFF10
:1016E800480ED86F040ED96FC1B11AD00BD0BEC046
:1016F800F6FF19D8F76403D00800F55002D0FAECC9
:1017080008F01FD80250F3E11200BEC0F6FF0BD854
:10171800F76403D00800F55002D0FAEC08F011D8AD
:101728000250F3E11200BFC0F7FFF86AD8C0D9FF32
:10173800D9C0DAFF070E1200B651D926B751DA22FE
:101748001200DF6E0001BE4BBF2BD84BD92B02060F
:10175800120060980001C1BF18D0010134AF0AD04F
:10176800020E0001F76FEF5102E1B9EC10F0F36BD4
:10177800F26B1200000128D80C0EDF6E42EC0AF062
:1017880004EC0EF0040EFCEF0DF0040140AF0ED097
:10179800010E0001F76FEE5102E1B9EC10F0F36BA6
:1017A800F26BF051D8A41200A1EF0FF0020E000165
:1017B800F76F0AD8DF6E42EC0AF0F36BF26BF05168
:1017C80002E1A1EF0FF0120020EE01F0D651D92668
:1017D800D751DA22080EDF6E20EE02F0D651D92654
:1017E800D751DA22400EDE6E040EDD6ED6C0D9FF68
:1017F800D7C0DAFF040C076E07500CE10001E8ECD3
:101808000BF00C0EDF6E42EC0AF004EC0EF0040E46
:10181800FCEF0DF00750040DF3CF03F0F4CF04F004
:101828000250020DF3500326F4500422D8900336D8
:101838000436D89003360436000E0324086E040ECE
:10184800042016D80250036E046AD8900336043672
:101858000750056E066A19D803500526045006225B
:1018680014D8040E0524086E040E062001D8000CB6
:10187800096E08C0D9FF09C0DAFF000EDB8408C072
:10188800D9FF09C0DAFFDB8E000CD8900536063682
:10189800D8900536063612000A6E0001CE51CF11D7
:1018A80004E020EC07F0DFBE1200D051D11104E0B3
:1018B800CFEC04F0DFBE1200EAC00BF0E669E86B7B
:1018C800E96B08C198F409C199F40AC19AF40BC1EB
:1018D8009BF4010E04019C6F030E0001EA6F1AD0FD
:1018E800020E04019C6F020C23D810D021D80AD014
:1018F8009BEC12F07AEC01F0020E0B1807E1D9EC20
:1019080004F004E0E8EC04F0FFEF0BF0010E026EC7
:10191800FFEF0BF00A50010AE3E0030AF7E0010ABF
:10192800E3E0070AEFE0010AE1E07A0AE1E01200E9
:10193800020E04019C6F020CC00E20142A6E7F0E4A
:1019480021142B6E2C6A2D6A20503F0B2E6E2AC054
:1019580011F02BC012F02CC013F02DC014F02EC0C3
:1019680015F024C016F025C017F026C018F027C0BF
:1019780019F015EC0EF027502EC028F0296A2826F9
:10198800000E292229BE000C295004E1410E285CD2
:10199800D8A01200400E2A24116E000E2B20126EC1
:1019A800000E2C20136E000E2D20146E156A24C014
:1019B80016F02E50255C286E000E2658296E400E13
:1019C8002824176E000E2920186E2E502724C00FC9
:1019D800196E15EF0EF004014039E832030B29E0C7
:1019E80012000001C18F080EF16F080CFA0E0001F9
:1019F800BE6FBF6BC181010EC26FC18F010CE20EB9
:101A080044250001BE6FBF6B010EBF23F3D7000151
:101A1800C18FE20E04014425D96EDA6A010EDA227A
:101A280042C4DFFF12000F6A020E51EC13F0E1EF1F
:101A38000EF0415102E15CEF0EF0010A02E1EBEF1A
:101A480004F0020A02E1EBEF04F0060ACAE0030A16
:101A580002E1A3EF08F0010AE6E00F0AC7E0010A75
:101A680002E13DEF0DF0030ACAE0010AD0E0070ADF
:101A780012000001C18F0DEC08F037D81FEC13F0ED
:101A8800026A040E036EDFEC09F01FEC13F0608CA1
:101A9800186A450E182410EC08F0182424EC08F0F5
:101AA800182A030E1864F5D7E20E026E010E1DD82F
:101AB8001FEC13F0609C1EEC08F0000ED46F040EAF
:101AC8001BD842C4FAF0FA5103E1100EF16F100C62
:101AD8000F6A010E0E6EFA0E106EB6EC07F0E1EC0E
:101AE8000EF0200E0001F16F200C036E056A046AE7
:101AF800076A030E066E030CD56FD4C0D6F0D5C0A6
:101B0800D7F012004B504A10491004E1020E485C0D
:101B1800D8A0000C4B504A1005E1040E485C010E99
:101B2800495801E3000C020E30D809E14CC002F01C
:101B38004DC003F04EC004F02CEC14F0010C030E61
:101B480024D809E14CC002F04DC003F04EC004F0A7
:101B58002AEC14F0010C516A526A51504F6E5250DF
:101B6800506E514A522A5050E9E1400E4F5CD8B0AD
:101B7800010C4CC0D9FF4DC0DAFF4C4A4D2ADF504A
:101B880094EC01F00009E9E1010C481849104A10E9
:101B98004B10120035D8000EDFBC010E036E040E88
:101BA800B61B080EF1190AE1040142517F0B636E5E
:101BB8006350100ED8B4040E0001F16FF70512E15E
:101BC8002AD823D859EC0BF0020EF91903E118D8DA
:101BD800040E0ED0035003E113D8480E09D010D8D4
:101BE800080E06D0010134BF349F0001F76B1200C4
:101BF800DF6EB6C0D9FFB7C0DAFF000EDB8E000C6F
:101C0800B6C0D9FFB7C0DAFF1200DA22480EDE6E7E
:101C1800040EDD6E040C20EE02F0B651D926B75141
:101C280012001F6A15501F5C20E3195015C01AF0E6
:101C38001B6A1A26000E1B221F501C6E1D6A1A50A2
:101C48001C5C1D50800A1E6E1B50800A1E580DE237
:101C580017C0D9FF18C0DAFF16501F24E16EE26AD8
:101C6800DFCFE7FF174A182A13D016501F24D96E62
:101C7800DA6A1F501124026E000E1220036E000E45
:101C88001320046E000E1420056EFAEC13F0DF6EBC
:101C98001F2A3F0E1F64C6D711C007F012C008F0F4
:101CA80013C009F014C00AF016C00BF0DCEF0FF0F7
:101CB8000401486B496B28D00001C18F0401488199
:101CC8000001EB0528E10401488325D00001C18FFC
:101CD80022D00001C18F040144BF05D044510F0B2D
:101CE80091EC05F004D044510F0B99EC05F0DECFD0
:101CF80002F0DDCF03F01AD8DFAE0DD017D8DFA47D
:101D08000AD0010E486F07D040511F0BD5E0010AD9
:101D1800DDE0030ADEE00001C1AF1200480EBE6F2D
:101D2800040EBF6FC181020EC26F020C02C0D9FF40
:101D380003C0DAFF120001EC12F05B6A010EB2EC8C
:101D480013F0000904E080AA02D0010E5B6E5BC0AC
:101D58005CF05C502AE0010EB2EC13F00009FBE1E4
:101D6800BBEC07F09AEC13F020D029EC07F0200E1A
:101D78000001F16101D019D060B217D023EC14F042
:101D880000090BE1010EB2EC13F0000906E0606AED
:101D9800646A0001F16B5C6A06D0020ED3EC13F0A2
:101DA800010EDDEC13F025EC14F05C5002E080BA73
:101DB800DCD780EF15F015EF00F01CD00001E551DD
:101DC80008E1010E026EFFEC0BF0E8EC04F0FFEF07
:101DD8000BF03BC116F03CC117F0165010182EE15D
:101DE80017501118D8A41200F5EC0AF023EC0FF0E4
:101DF800FEEF0AF00EC014F00FC015F0155004E005
:101E08007F0AD8A4120018D01450010A02E103EF87
:101E180014F0030AD8B41200010A02E1ADEF0AF087
:101E2800060ACCE0770AD8B41200010AD8B4120026
:101E3800070AD8A4010A1200141C12001200066E28
:101E4800025004E0065099EC05F003D0065091ECDE
:101E580005F0DECF07F0DDCF08F00750081003E1EA
:101E6800026A036A120020EE02F026D803C0DEFFE1
:101E780004C0DDFF20EE01F01FD805C0DFFF17D832
:101E8800400EDF1614D8000EDB8611D8DB8E025008
:101E980004E0065099EC05F003D0065091EC05F0EB
:101EA800040EDF1A07C002F008C003F0040C07C0D4
:101EB800D9FF08C0DAFF12000750D9260850DA22E5
:101EC8001200076E086A040E096E0250036E046A57
:101ED800D890033604360750056E066A22D8035098
:101EE8000526045006221DD805500826065009224A
:101EF8001FD8DF9E025004E1075091EC05F003D093
:101F0800075099EC05F008C0DEFF09C0DDFF10D8C6
:101F1800DF9C20EE04F00850D9260950DA22DF8C25
:101F28001200D89005360636D890053606361200C7
:101F380008C0D9FF09C0DAFF12000001F251D8A485
:101F48001200010EF26FF351D8A41200010EF36FC4
:101F5800020EF7190AE120EE01F0A0EC0BF0DF6A9F
:101F680004EC0EF0480EFCEF0DF0F705D8A41200B3
:101F7800E46B20EE01F017D83DEC0AF014D8400EBF
:101F88000ED803EC13F0DF6E03EC13F0000EDB8EBB
:101F9800010EE46FE8EC0BF0800EDF6E800CDE6E55
:101FA800040EDD6E040CD451D926D551DA22120064
:101FB800C00E07140C6E7F0E08140D6E0E6A0F6AA1
:101FC8000C5007182EE10D5008182BE10E50091877
:101FD80028E10F500A1801E0120007C002F008C0FB
:101FE80003F009C004F00AC005F0B8EC12F009C00B
:101FF800F8FF08C0F7FF07C0F6FF106A0B5010245F
:10200800D96EDA6ADF50F56E3F0E101802E10C0047
:1020180001D00D00102A3F0E1064F0D7000E60ECBE
:1020280012F012000250046E03502ED805500959C0
:1020380006500A5907500B5907E274EC01F008C121
:10204800CCF009C1CDF012000001CC51025CCD5199
:10205800035804E202C0CCF003C0CDF0CC51046EAA
:10206800CD5112D80401986F055001010959040196
:10207800996F065001010A5904019A6F075001012E
:102088000B5904019B6F1200056E066A076A04501B
:102098000101085D12002D0EF46FFBC01FF0FD0E4C
:1020A8001F1629E1D890FB313F0B040D000EF324D5
:1020B800D46F040EF42080EC0DF0040ED61B03EC54
:1020C80013F0DF30E8320F0B0D0A02E057EF13F080
:1020D800400E026E040E036E20EE02F0D7EC0FF0F5
:1020E800DECF04F0DDCF05F0076A080E066EB6EC09
:1020F80011F08FEF11F0FB51FD0B040AD8B4CEECB0
:102108000DF012001DEC14F0000904E120EC14F0AD
:1021180041EC12F036C002F037C003F038C004F0CA
:1021280039C005F079EC13F0000901E11200010E45
:102138000001E36F3950381003E1800E375C05E386
:102148003AC002F03BC003F0120036C02FF037C08F
:1021580030F038C031F039C032F03AC033F03BC00B
:1021680034F03CC035F022EF12F0EE6BEF6B020E4C
:10217800F71913E120EE01F038EC0AF03DEC0AF013
:1021880038EC0AF0480EDE6E040EDD6ED6C0D9FFBC
:1021980049EC0AF042EC0AF0000CC2510401465D19
:1021A8000001C3510401475904E246C4C2F047C4C0
:1021B800C3F059EC0BF00FEC0EF009EC0EF004EC48
:1021C8000EF0480EFCEF0DF002C008F003C009F055
:1021D80011D00606D8A0070604C0F6FF05C0F7FF11
:1021E800044A052A17D8084A092A0800F5CFDFFF4C
:1021F800DF5008E00650071005E0EBD70BD8DF6A80
:10220800084A092A0606D8A007060628F7E107287B
:10221800F5E1120008C0D9FF09C0DAFF120002EE8A
:1022280000F0400EEE6AE806FDE101EE00F0E50E72
:10223800EE6AE806FDE100EEB6F0460EEE6AE80644
:10224800FDE15D6A920EF66E270EF76E000EF86ECF
:1022580001EEE5F010EE14F00900F5CFEEFFE550C1
:10226800E150FAE15E905E92000EF86E00019FEF79
:102278000EF00CC002F00DC003F0056A046A020EED
:10228800076E066A1FEC13F00E50D8A412000CC09B
:1022980002F00DC003F0700E046E2A0E0ED8B6ECD4
:1022A80011F0200E0C24026E000E0D20036E900E0D
:1022B800046E2A0E02D8B6EF11F0056E076A200EDA
:1022C800066E200C0AC002F00BC003F0DFEC09F028
:1022D8001FEC13F00C50D8A412000AC0D9FF0BC091
:1022E800DAFFF80EDF6E20EE01F00FD820EE02F0D4
:1022F8000CD820EE03F009D820EE04F00A50D926B5
:102308000B50DA220F0EDF6E0F0C0A50D9260B5035
:10231800DA22DF6812000001F96BF06BEE6BEF6BED
:10232800E46BF76B04EC0EF018D804EC0EF015D83B
:10233800D6C0D9FFD7C0DAFF7F0EDF16C16BC26BDC
:10234800C36B2AEC08F0EFEC0CF00F6A030E51ECAB
:1023580013F0E1EC0EF0ADEF0BF07F0EDF16040E7C
:10236800B61B040C04C00AF005C00BF002C008F04C
:1023780003C009F016D00AC0F6FF0BC0F7FFF86AD1
:1023880008C0D9FF09C0DAFF070EF76403D00800B8
:10239800F55002D0FAEC08F0DF6E0A4A0B2A084A18
:1023A800092A0606D8A007060628E5E10728E3E17A
:1023B800120013D09BEC12F02151F00B0209216F8F
:1023C8003A0E2B6F2C6B17EF00F0010E04019C6F77
:1023D80089EF01F07F0E50EF0CF00001E651F5E0B7
:1023E800030AE8E0110A02E117EF00F00C0AEDE039
:1023F800E30A02E117EF00F0EDD7800E9B6E700E36
:10240800D36E100ED26ED2AEFED7900EB56E34ECEF
:1024180013F0010EDDEC13F0020ED3EC13F0010EF5
:10242800BEEC13F0020EBEEC13F0010EA6EC13F096
:1024380068EC13F09AEC13F0BBEF07F02FC002F032
:1024480030C003F031C004F032C005F079EC13F06D
:10245800000901E112002FC020F030C021F031C086
:1024680022F032C023F0600E246E33C025F034C051
:1024780026F035C027F0A0EF0CF00B6A330E0C6E77
:102488000D6A0E6A0BC007F00CC008F00DC009F009
:102498000EC00AF008EC13F0200E0B26000E0C22DA
:1024A8000D220E220E500D1003E1800E0C5CEAE3A3
:1024B800010E0001E36F010C036E000EF2BE010E67
:1024C800046EA68E035003E0026A022A01D0026A53
:1024D800023A02460246A6500218BF0B0218A66E20
:1024E800A684CDEC12F0A69404B002D0F29E01D0DE
:1024F800F28E000C036E17D8DF6001D0000C13D8E1
:10250800DF5E0350D96EDA6A090EDF6405D0035026
:10251800D96EDA6A070EDF5E0350D96EDA6A0F0EDB
:10252800DF64010C000C0350D96EDA6A300C01012B
:102538001F51800B70091F6F1F9F206BF00E211712
:10254800219B219D219F226B236B246B256B0A0EF7
:10255800266F276B286B296B2A6B2B6B2C6B2D6BCB
:102568002E6B2F6B306B1200000EF2BE010E066E42
:1025780004C0F8FF03C0F7FF02C0F6FFA68EA69CB2
:10258800A684A68806D806B002D0F29E01D0F28EA4
:102598001200F29E550EA76EAA0EA76EA682AA0C6E
:1025A8000D6E0AA404D0026A0D5065EC0FF00AA261
:1025B80005D0010E026E0D5065EC0FF06A0E0D2469
:1025C8000B6E0C6A0F0E0C220BC0D9FF0CC0DAFF81
:1025D8000AC0DFFF0F0C6AA010D011D8800EDE18D9
:1025E8000BE104EC0EF0840EDE1806E108D80C0EA0
:1025F800DF6E05D8000EDB8E6A90659A1200D4C093
:10260800D9FFD5C0DAFF120007C002F008C003F0F6
:1026180009C004F00AC005F079EC13F0000901E1E3
:10262800120007C002F008C003F009C004F00AC095
:1026380005F0B8EF12F002C008F003C009F008D0A6
:1026480008C0D9FF09C0DAFF04C0DFFF084A092A19
:102658000606D8A007060628F3E10728F1E11200CC
:102668009F0E896E380E926E0F015B6B400E8A6E5C
:10267800840E936E5C6B800E856E8B6AB80E946EBA
:102688005D6B1200648465986082010EED6FF56BD6
:102698000F6A750E02D8E1EF0EF00E6E106A116A1D
:1026A800136A126A1200020EF71902E1EAEF09F042
:1026B800F76BE45107E1E8EC0BF00C0EDF6E42EC2F
:1026C8000AF0000CE46B12000F015D9D5D9F948E73
:1026D800948C240EAC6E900EAB6E700EAF6E020E24
:1026E800B06E080EB86EAE501200066A055004109F
:1026F80003E1330E035C08E30550041005E1800E86
:10270800035C02E2010E066E06501200ED6B0F6AC2
:10271800740E51EC13F0E1EC0EF06092649401D069
:10272800659465B4FDD70001F56B12008D0E026E3D
:10273800010ED0EC02F0400E066E1FEC13F0000103
:10274800F66B1200026E04D093840F015C951200A0
:102758000250D8B41200010AF7E01200026E03D04A
:1027680081A4010C000C0250D8B4000C010AD8A4B2
:10277800000CF6D7026E03D0949494941200025081
:10278800D8B41200020AF8E01200CE2714282A282A
:102798005C28021352280C1B000000000000026E87
:1027A80002D08B9412000250D8B41200020AF9E049
:1027B8001200026E02D08B8412000250D8B41200AC
:1027C800020AF9E01200DE81020EE06FDF6BDD6BBA
:1027D800DD0E026E010E036E12000001ED51D8A449
:1027E8001200F52BF551D8B4F569120004C0F8FFB2
:1027F80003C0F7FF02C0F6FF0800F55012001E0ED6
:102808000A6E010ED4EC12F003EF0BF0030E026E09
:10281800010E036E046A056A000C27EC14F0F66BCF
:102828001200020E036E026A000C84EF15F05E922D
:1028380011000001E3511200010EE36F010CF65183
:102848001200F8EF03F0E36B1200000C1200120004
:062858001200510C010CFE
:1029200000DC2A182ADE29B02A2B290902620003BA
:102930000102C032090400000208065000070581A8
:102940000240000107050102400001080B010202DC
:102950000201000904010001020201000524002017
:1029600001042402020524060102052401000207D5
:102970000582030A000209040200020A000000079F
:10298000050302400000070583024000003C6D651E
:10299000746120687474702D65717569763D22725A
:1029A0006566726573682220636F6E74656E743D30
:1029B00022303B55524C3D27687474703A2F2F6D6E
:1029C000706C61627870726573732E6D6963726F7B
:1029D000636869702E636F6D2722202F3E003A03D3
:1029E0004D006900630072006F00630068006900B9
:1029F0007000200043006F006D0070006F007300D6
:102A000069007400650020004400650076006900DC
:102A1000630065000000000034034D00690063009E
:102A200072006F00630068006900700020005400AD
:102A30006500630068006E006F006C006F00670047
:102A40007900200049006E0063002E00008004021F
:102A5000200000004D6963726F6368704D6173738D
:102A60002053746F72616765202020203030303130
:102A70004861636B41426164676520080000401053
:102A80004748474800004010474800000000000049
:102A9000524541444D45202048544D2000004010EF
:102AA00047484748000040104748020051000000D6
:102AB0001A0331003200330034003500360037008D
:102AC0003800390030003900390012010002EF02ED
:102AD0000108D8045700010001020301040309049E
:102AE0004861636B4142616467652000464154312F
:0F2AF00032202020004D53444F53352E3000002C
:020000040020DA
:08000000FFFFFFFFFFFFFFFF00
:020000040030CA
:0E0000002108593CFFC180FF0FC00FE00F40E8
:00000001FF
