:0400000015EF00F008
:060008005E8238EF14F0E7
:100018005E80E0CF01F08CEF19F001C0E0FF5E9048
:100028001000CCEF11F03DD17FEC06F00009D8A408
:1000380012006BD1D5EC02F00009FBE01200E705D5
:10004800F8E012C1D1F013C1D0F0D0C00CF0D1C08B
:100058000DF00E6A0F6A5FEC0AF0000901E0120069
:10006800036A240E026E2FEC10F0D00E026E040EFE
:10007800036E4C0E046E2A0E056E076A240E066E79
:10008800A5EC11F0FD0E0001E66FFD0CB5C102F004
:10009800B6C103F021EEA9F001D80AD00500FA6E26
:1000A800DE50FD6EDE50FE6EF850FF6EFA50120004
:1000B80002C0A7F003C0A8F004C0A9F005C0AAF0C8
:1000C800B5C102F0B6C103F021EEABF001D80AD0F9
:1000D8000500FA6EDE50FD6EDE50FE6EF850FF6EC3
:1000E800FA50120002C0A3F003C0A4F00001A56BEF
:1000F800A66B24EED0F0AAC0DFFF24EED1F0A9C091
:10010800DFFF24EED2F0A8C0DFFF24EED3F0A7C0B3
:10011800DFFF24EED4F0A6C0DFFF24EED5F0A5C0A3
:10012800DFFF24EED6F0A4C0DFFF24EED7F0A3C093
:10013800DFFFD16B080EECD82FEC10F0A3D7E70542
:1001480001E177D7D16B120EE3D82FEC10F0000144
:10015800AB6B1F0EAB25D96EDA6A010EDA22D00E10
:10016800AB25E16EE26A040EE222DFCFE7FFAB2B9C
:10017800110EAB65EED786D7030EE8CFD0F4000E8C
:10018800E8CFD1F4CCEC03F001D80AD00500FA6E20
:10019800DE50FD6EDE50FE6EF850FF6EFA50120013
:1001A800000904E10001A06BA16B04D00001A16B60
:1001B800800EA06F24EED2F0A0C0DFFF000EE8CFC3
:1001C800D3F4D16B040EA4D82FEC10F05BD7010147
:1001D8008DD8A2D885D899D00C6A0D6A0E6A0F6A94
:1001E8005FEC0AF0000901E01200010121510F0B38
:1001F800060A04E104019C0501E11BD7B0EC12F0EA
:10020800E9D76ED882D0D251D31104E020EC07F0A0
:10021800DFBE120001010B510A11091103E1400E62
:10022800085D05E3400E0001A26F68D806D008C13A
:10023800A2F0086B096B0A6B0B6B0001A251586E98
:10024800596A5850D05D5950D15905E3A251D05F31
:10025800000ED15B12D0AB6B0DD0D051D11104E0A0
:10026800D007D8A0D10705D0D00EAB25DEEC04F01E
:10027800DF6AAB2BA251AB5DF0E3010E026ED00E2C
:10028800036E040E046EA2C005F0010E3CEC0FF0E4
:10029800D4EC04F00101D9EC04F0CFD67F0E0FEFB7
:1002A8000CF00001E65198E0030A01E148D7110A71
:1002B80001E1C5D6080A01E15FD7010AA2E0050AF3
:1002C80086E03B0A01E1E2D60D0A01E1ADD6020A59
:1002D80001E1B0D6050A95E0D20A95E0030ADED717
:1002E8000401986B996B9A6B9B6B12002151F00B70
:1002F8000509216F200E2B6F2C6B12000101085F7E
:10030800000E095B0A5B0B5B000C0001E66912003A
:10031800D06F036A026E1200010E04019C6F010C7B
:10032800456E21D10D0E451801E12FD10A0E451851
:1003380001E12BD13A0E451801E0000C010EE26FE5
:100348005D6AC86BC96BCA6BCB6BDE6B010C450E63
:1003580093EC12F0000903E10001E26B000C5D2A46
:100368005D0402E145C0DFF0020E5D1801E00DD129
:100378000001DF51100DF3504524DF6FDF51DE27F8
:100388005D6A100EDF6501D0E7D7020E5CD0450E1E
:1003980093EC12F00009E0E05D2A5D0407E14550A6
:1003A8000001C86FC96BCA6BCB6B010CC8C03DF0AC
:1003B800C9C03EF0CAC03FF0CBC040F0040ED89090
:1003C8003D363E363F364036E82EF9D745503D2477
:1003D8000001C86F000E3E20C96F000E3F20CA6F93
:1003E800000E4020CB6F040E5D1801E0CED0C9513D
:1003F800C825DE275D6A030E26D0450E93EC12F061
:100408000009AAE05D2A5D0402E14550A5E1020E5B
:100418005D1801E0BAD045C0E1F045500001DE2783
:100428005D6A040EE26FE06B8F0E026E010EB4D8A7
:10043800100E066E34EC13F00001E15101E1A5D075
:10044800E10503E1050EE26F010C040EE11901E17B
:100458009CD082D7450E93EC12F0000901E17CD7BD
:100468005D2A5D0406E18F0E000190D84538F00B37
:10047800DF6E020E5D1801E088D05D6A8F0E000104
:1004880085D84550DF268F0E81D8DF50DE27E02B38
:10049800DF51E019D7E0010C450E93EC12F000098A
:1004A80001E15AD75D2A5D0404E14538F00B0001EB
:1004B800DE27020E5D1869E15D6A45500001DE27FE
:1004C800DE5101E049D7E26BE1511CE1C85101015D
:1004D8004125366E0001C95101014221376E0001E4
:1004E800CA5101014321386E0001CB510101442159
:1004F800396E8F0E3A6E010E3B6EDFC03CF09FECFA
:1005080010F0010C040EE11923E190C13DF03E6AA0
:100518003F6A406A3EC040F03DC03FF03E6A3D6AD7
:100528008FC141F0426A436A446A41C044F0436A59
:10053800426A416A3D5041240101416F3E504220C8
:10054800426F3F504320436F40504420446F010C9A
:10055800E105D8A4000C30EC14F00101416B426BAA
:10056800436B446B010C0001E25101E1DBD6010A47
:1005780001E1EDD6030A01E10AD7010A01E13DD7FD
:10058800070A01E167D7010A87E0010CE025D96E67
:10059800DA6A010EDA221200036E056A0468076A35
:1005A8001200C3D0E1D8536ED151546E556A566AC1
:1005B800090ED8905336543655365636E82EF9D7A4
:1005C80053C00CF054C00DF055C00EF056C00FF0DB
:1005D8005FEC0AF0000919E1DBD801D80AD0050060
:1005E800FA6EDE50FD6EDE50FE6EF850FF6EFA5069
:1005F800120000090DE0010EC5D80709EBD8E8EC98
:1006080004F05FEC0CF00001E96B0001E951120005
:10061800010E0001EA6FD051D111F5E0030EE96F28
:10062800D4D8C5D8DD6B0401E3EC04F010E0000178
:10063800D451D51104E0CFEC04F0DFBEE6D7000EAC
:10064800AED83CEC0FF00FEC0BF0040E5DD0A0D848
:1006580001D80AD00500FA6EDE50FD6EDE50FE6E3F
:10066800F850FF6EFA501200000904E0010E8AD813
:100678000209B0D8020E48D0D451D51104E0CFEC0D
:1006880004F0DFBEC2D704019C512BE1B5C146F08E
:10069800B6C147F0010E0001CC25486E000ECD21F1
:1006A800496E000ECE214A6E000ECF214B6ED00E41
:1006B8004C6E040E4D6EDD2BDD054E6E21EEB3F053
:1006C80001D80AD00500FA6EDE50FD6EDE50FE6ECF
:1006D800F850FF6EFA501200E80603E0010E52D8F7
:1006E8007ED832D80101085F5550095B56500A5B25
:1006F80057500B5B29D80401985F5550995B5650A9
:100708009A5B57509B5B030E000105D058D8D00761
:10071800D8A0D107010EE96F78D7020E04019C6FAB
:10072800E8EC04F05FEC0CF06ED70001E95101E150
:1007380039D7010A01E16FD7030AE8E0010A01E1AC
:1007480072D7070A99E0E9D7000120EE01F0D451E9
:10075800D926D551DA22DF50536E53C054F0556A6A
:10076800566A576A5450120011C1CFF012C1CEF028
:1007780013C1CDF014C1CCF016C1D1F017C1D0F01F
:10078800D051120004019C6F01012151F00B12009D
:10079800B5C102F0B6C103F021EEB1F01200026E4D
:1007A800DAC003F0DBC004F0400E056E010C040152
:1007B800986B020E996F9A6B9B6B0001020CCC2B05
:1007C800000ECD23CE23CF23000CD00EDA6F040EFB
:1007D800DB6F040C216F270E2B6F2C6B12000309A3
:1007E800216F2B6B2C6B1200200E0001F11901E117
:1007F800C8D01200D451D51103E0CDD8DFBE120005
:10080800B56B500EB525D6D8000EB525E16EE26A57
:10081800010EE222DFCFE7FFB52B1E0EB565F1D73B
:1008280020EE01F0D451D926D551DA221F0EDE1858
:1008380055E1550E0101001951E1530E01194EE120
:10084800420E02194BE1430E031948E1010E000163
:10085800E56F01010D513DE1110E0E613AD00E51C7
:1008680038E00CC15AF03F0E5A1633E1550E040118
:10087800906F530E916F420E926F530E936F04C197
:1008880094F405C195F406C196F407C197F4986BE2
:10089800996B9A6B9B6B9C6B0001E669E86BE96B43
:1008A800030E01010F1904E0F00E21172B6B2C6BBE
:1008B800010E0CAF020E0001EA6F010176D803E0C9
:1008C8000001E76B03D0010E0001E76F0FC1E6F0EE
:1008D8001200010E026E5FEC0CF050D0010E026E99
:1008E8005FEC0CF071D85FEC0CF00001E56B1200C6
:1008F800BAEC07F0FF0AD8A41200030E0001EA6F51
:10090800030CBAEC07F0FF0AD8A4120004019C51AA
:10091800F4E155D8F2E0020E9C6FEFD7BCC0B1F0FD
:10092800BDC0B2F0B151B2110AE0BCC0B3F0BDC055
:10093800B4F0B3C0D9FFB4C0DAFFDFBE1200010EB5
:10094800026E900E036E040E046E0D0E056E010EFF
:100958003CEC0FF025D80001D451D51103E01BD889
:10096800DFBE06D006EC0BF03CEC0FF00FEC0BF002
:100978000001EA6B1200EA6B5BEC0CF025D85FEF24
:100988000CF0EA5101E136D7010AB2E0030AB9E0F6
:10099800010AC4E0F0D7D4C0D9FFD5C0DAFF1200ED
:1009A80002C0D2F003C0D3F01200085109110A1195
:1009B8000B111200D96EDA6A040EDA22040C98516F
:1009C80099119A119B111200000E026E010C04017C
:1009D80042050FE140511F0B0CE10001C58F030ECA
:1009E8000401411904E1010E0001EB6F02D000017E
:1009F800EB6B04014251D8A4120040511F0B020AAC
:100A0800D8A4120044510F0BD8B4120044510F0B54
:100A1800186E040E1860040C200E0001F119D8A4F9
:100A28001200C58F040144BF06D044510F0B75D87E
:100A3800A3D886D806D044510F0B77D89DD84451F7
:100A480088D81920DA6EDF501C6E1CB002D01D94B5
:100A580001D01D8444BF04D044510F0B5ED803D08D
:100A680044510F0B62D81DC0DEFF1EC0DDFF030E10
:100A7800411913E160D8DFAE0AD044BF02D060D874
:100A880002D0445166D81920DA6E0101DF8253D8AA
:100A9800000EDB8450D8DB8E000C040E1D1A4BD8D8
:100AA800DFAE0AD048D87F0EDF1645D8000EDB8CA3
:100AB80058D8FAEC0EF003D03ED8000EDB8C040EAA
:100AC8001D1A1CB203D037D8DFAE12D0040144BFC0
:100AD80002D036D802D044513CD81920DA6E010130
:100AE800DF9229D83B0EDF163CD8FAEC0EF003D083
:100AF80022D83B0EDF16040144510F0B186E196AF9
:100B08006A0E18241A6E0F0E19201B6E1AC0D9FF10
:100B18001BC0DAFFFE0EDF16FE0C020D390EF324A1
:100B2800D96E010EF420DA6E1200020DF350BA0FDE
:100B3800D96EDA6A12001DC0D9FF1EC0DAFF120092
:100B480044510F0B186E196A490E1824D96E010EFC
:100B580012000F0B186E196A450E1824D96E010E73
:100B680012000F6A050E0E6E1DC010F01EC011F0A7
:100B7800136A020E126E020CDECF1DF0DDCF1EF0DE
:100B880012000CC002F00DC003F0F2EC09F034ECD6
:100B980013F00E5001E093D00CC0D9FF0DC0DAFF5E
:100BA800EB0EDF6E20EE01F096D83C0EDF6E20EEE5
:100BB80002F091D8900EDF6E030E92D8F50E046EF7
:100BC8002A0E94D8A5EC11F020EE0BF084D8DF6A39
:100BD80020EE0CF080D8020EDF6E20EE0DF07BD8F0
:100BE800010EDF6E20EE0EF076D8010EDF6E20EEDD
:100BF80010F071D8010EDF6E20EE11F06CD8100ED7
:100C0800DF6E20EE15F067D8F80EDF6E20EE16F0D6
:100C180062D8010EDF6E20EE18F05DD83F0EDF6E51
:100C280020EE1AF058D8DF6820EE1CF054D8010ED8
:100C3800DF6E20EE20F04FD8030EDF6E20EE21F09D
:100C48004AD8010EDF6E20EE22F045D8DF6A20EE8A
:100C580023F041D8DF6A20EE24F03DD8DF6A20EE89
:100C680025F039D8DF6A20EE26F035D8290EDF6E58
:100C780020EE27F030D8320EDF6E20EE28F02BD889
:100C8800670EDF6E20EE29F026D8940EDF6E20EE78
:100C98002AF021D8C40EDF6E2B0E22D8E00E046E87
:100CA8002A0E056E076A0B0E066EA5EC11F0360EBD
:100CB80017D8EC0E046E2A0E19D8A5EF11F0070EFE
:100CC8000E6001D0070C20EE3EF005D81AEC09F0B2
:100CD80002D81FEF09F00C50D9260D50DA22120065
:100CE8000C24026E000E0D20036E1200056E076ABA
:100CF800080E066E080C90D0B8EC03F01A6ED151AD
:100D08001B6E1C6A1D6A090ED8901A361B361C36D3
:100D18001D36E82EF9D71AC00CF01BC00DF01CC008
:100D28000EF01DC00FF05FEC0AF0000901E081D061
:100D380088D8D051D11103E10001E86B7AD0D007EF
:100D4800D8A0D107020EE86FD251D31103E074D8AE
:100D5800DFBE6FD0E3EC03F0DBEC03F0DC6BE9EC17
:100D680003F0030EE86F0401E3EC04F002E169D834
:100D780060D0040E0001E86FD251D31103E05CD8B3
:100D8800DFBE57D0B5C10FF0B6C110F0CCC011F01E
:100D9800CDC012F0CEC013F0CFC014F0D00E156E37
:100DA800040E166EDC2BDC05176E21EEAFF001D8B1
:100DB8000AD00500FA6EDE50FD6EDE50FE6EF85069
:100DC800FF6EFA501200E8060AE0020EC6EC03F0C5
:100DD800F3EC03F0010E026E5FEC0CF0ADD7010EE0
:100DE800D3EC03F03CEC0FF0D4EC04F0030E00015C
:100DF800E86F400E82EC01F0400E0401985F000E8F
:100E0800995B9A5B9B5B15D0020E04019C6F010EE7
:100E1800026E5FEC0CF090D70001E85101E16CD74D
:100E2800010A87E0030A90E0010A9DE0070AA4E0AE
:100E3800EBD70001E8511200D2C0D9FFD3C0DAFFC6
:100E48001200010E0001E86F010C0001F1510AE1E6
:100E5800606A646A8FEC08F001D0608660A6FDD7EE
:100E6800010EF16FF10508E160BA06D0656A646A9F
:100E780064806488020EF16F65B464A403D065943D
:100E88009FEC13F060A202D0A494120065B064A095
:100E980005D03AEC08F0040EF16F659065B864A8C7
:100EA80002D05BEC13F065AC13D064AC07D00F6ACA
:100EB800730E0E6E106A55D8FAEC0EF0659C10ECA5
:100EC80014F0F45101E0F407F45102E1BAEC0FF028
:100ED80065BA64AA02D004EC13F065B264A208D023
:100EE8007F0E0F6E0E68106A3CD8FAEC0EF0676A37
:100EF800040E0001F16102D0A494040C64A62FD062
:100F0800206A65A62CD061CFFBF00001FB31E832E6
:100F1800E8320F0BF86F6596FBB506D0490EF82539
:100F2800D96EDA6A010E05D0450EF825D96EDA6A4F
:100F3800010EDA22DF700001F85103E168EC10F0CD
:100F48000AD00F6A720E0E6EFB0E106E116A136ACB
:100F5800126AFAEC0EF0202A030E2064D2D7A49469
:100F68001200116A136A010E126E010C6AD801D8B8
:100F78000AD00500FA6EDE50FD6EDE50FE6EF850A7
:100F8800FF6EFA501200000904E0010161D8DE0486
:100F980014E14FD801D066D8AC2FFDD70001AD1DA4
:100FA800AF6FAE1DB06FAF5101014D170001B051C9
:100FB80001014E17F2EC11F039D03BD801D052D8CC
:100FC800AC2FFDD701014D510001AD1701014E5164
:100FD8000001AE17AD51AE1127E13FD801D80BD0B3
:100FE80005000101FA6EA751FD6EA851FE6EF8507A
:100FF800FF6EFA50120002500310DCE01AD801D03C
:1010080031D8AC2FFDD70001AD5101014D130001BE
:10101800AE5101014E132151F00B0609216F280E24
:101028002B6F2C6B90EC01F017EC00F00001E651EF
:1010380012000DC1ACF0010E0001AD6FAE6BAC2B10
:10104800010CB5C102F0B6C103F021EEADF01200FB
:101058000D51EC0FD96EDA6A1200B5C102F0B6C1B3
:1010680003F01200D890AD37AE371200A394676A28
:10107800656A6A6A4DD8D4EC0DF034EC13F04BD89D
:101088000A6A0A50040D000EF324D96E040EF420E7
:10109800DA6EDE6ADE6ADE6ADD6A0A2A0F0E0A6422
:1010A800F0D7608C636A6098609C65960001C56B98
:1010B8004CD865B6FAD7010E0001F26FF36FEE6BEC
:1010C800EF6BED6B0A6A0A5099EC05F0DE6ADD6A8F
:1010D8000A5091EC05F0DE6ADD6A450E0A2422D832
:1010E8000A242DD80A2A030E0A64EDD722D8160E30
:1010F8006A6E040E0401036F400E026F080E016F42
:10110800040E006F008F0001FA6BF56BF16B120093
:101118006B0E026E0F0C160E626E9F0E666E7B0EC5
:10112800646E7B0CD96EDA6A010EDA22DF6A490E28
:101138001200080E0001BA6F040EBB6F040CD96EC2
:10114800DA6A010EDA22DF6A12000101346B356BAC
:10115800366B12000AC002F00BC003F0F2EC09F083
:1011680034EC13F0060E0C6001D0060C070E0C6070
:101178001ED020EE38F055D8F50EDF6E20EE39F08F
:1011880050D88B0EDF6E20EE3AF04BD8160EDF6E7D
:1011980020EE3BF046D8EA0EDF6E20EE3EF041D856
:1011A800DF6A20EE3FF03DD8010EDF6E010C0AC069
:1011B800D9FF0BC0DAFF010EDF6E20EE01F031D847
:1011C800DF6A20EE02F02DD8010EDF6E20EE03F06C
:1011D80028D8070EDF6E20EE04F023D8DF6820EE53
:1011E80005F01FD8E60EDF6E20EE06F01AD8010EC5
:1011F800DF6E20EE0AF015D8030EDF6E20EE0BF03E
:1012080010D8010EDF6E20EE0CF00BD8DF6A20EE4E
:101218000DF007D8DF6A20EE3EF003D807D801D8D2
:101228000AD00A50D9260B50DA221200550EDF6E6A
:1012380020EE3FF0550CAA0EDF6EAA0C800E0401BA
:101248004019D8A41200C00E0001C56F45D0CA0EBF
:101258000001C26F2A0EC36FC76B120EC66F120C45
:1012680042511DE14251020D290EF324F66E290E5A
:101278004ED8020E00013FD8F76403D00800F5509D
:1012880001D033D80001C66F030E35D8F76403D0F8
:101298000800F55001D029D80001C76F12000001DD
:1012A800C56B1200040E4261FAD74251020D210E9D
:1012B800F324F66E290E2BD8C2C0F6FFC3C0F7FF81
:1012C800F86A070EF76403D00800F55001D00DD86E
:1012D8000001C66FC76B120004014351010AB7E051
:1012E800030ABEE0010ADEE0DAD7F6CFE1FFF7CF66
:1012F800E2FFE7501200C225026E000EC321036E02
:1013080002C0F6FF03C0F7FFF86A070E1200F420C8
:10131800F76E0900F5CFC2F00A00F5CFC3F012004E
:10132800115012101310141009E115C00AF016C05C
:101338000BF017C00CF0AEEC08F0010C1104121001
:101348001310141009E115C00CF016C00DF017C0E9
:101358000EF0C5EC05F0010C020E46D809E115C0E7
:101368000AF016C00BF017C00CF055EC11F0010C88
:10137800030E3AD809E115C00CF016C00DF017C0DD
:101388000EF02CEC11F0010C15C002F016C003F0A1
:1013980025D834EC13F0040E27D81FE14CEC14F0D8
:1013A8003F0F3F0B1760010C15C002F016C003F089
:1013B8001750186E196A060ED89018361936E82E86
:1013C800FBD78D0E1824046E290E1920056E076AA6
:1013D800400E066E01EC11F0010C010C056A046A5E
:1013E800076A400E066E400C1118121013101410E4
:1013F800120020EE01F0ECEC0FF0DF50036E03500A
:101408000101355D000E365902E235C103F0035083
:10141800355F000E365B026A0DD0480E0224DEEC02
:1014280004F031C1E1FF32C1E2FFDFCFE7FF314B0A
:10143800322B022A0350025CF0E3355136111AE0D0
:1014480020EE01F022D826D820D8480EF1EC0FF073
:1014580018EC13F00001DFBC05D05BC0D9FF26D81B
:101468001ED8000C5BC0D9FF5CC0DAFF080EDF6E27
:1014780016D8000CF8EC0BF0DF6E11D8349F000181
:10148800F051D8B4BAEC0FF012005B50D9265C507A
:10149800DA221200080EDF6E20EE02F0080C5BC0A4
:1014A800D9FF5CC0DAFF000EDB8E000C5CC0DAFFEF
:1014B800480EDF6E480C0C500D100E100F1003E193
:1014C800010E116E01D0116A0001E70503E1110454
:1014D80001E1000C0C500101081914E10D50091923
:1014E80011E10E500A190EE10F500B190BE1000122
:1014F800EA0504E12A0EE61905E0000C2A0EE619B1
:1015080001E1000C010108510C5C09510D580A5108
:101518000E580B510F5803E2010E106E01D0106ADD
:10152800020E0001EA1912E12A0EE61904E0115030
:1015380002E1050E15D0E70502E1010E11D01104F4
:1015480002E1040E0DD01004FCE0F3D72A0EE619D0
:1015580002E1030E05D0E705F0E0110403E1020EF5
:10156800126E03D01004FBE0F4D712500FEC0CF00D
:1015780012501200040140511F0BE80601E012004E
:1015880044513AE0120042514311D8A41200465186
:10159800471101E0120064EC0BF0010EE56F3BC14E
:1015A80009F03CC10AF009500A100AE03BC10BF0EF
:1015B8003CC10CF00BC0D9FF0CC0DAFFDFBE04D071
:1015C80021D83CEC0FF027D8800E0001C56F800CA5
:1015D80042514311D8A412004605471101E01200F8
:1015E800486B480E0001C26F040EC36FC76B010E33
:1015F800C66FC10EC56FC10C4151FE0AE9E0010A70
:10160800C2E01200000E026E500E036E040E046E4D
:10161800400E056E010C02C0D4F003C0D5F01200D4
:1016280006EC0BF03CEC0FF00FEC0BF0BCC0D2F06A
:10163800BDC0D3F045D8E76B010EE56F01014D6BD6
:101648004E6B0D6B3AD02CEC08F0000EDF6E25ECDB
:1016580008F001D80AD00500FA6EDE50FD6EDE50A3
:10166800FE6EF850FF6EFA501200000923E031ECCC
:1016780008F001D80BD005000101FA6EA751FD6EE4
:10168800A851FE6EF850FF6EFA5012000250031077
:1016980011E00DC109F0010E0A6E0B6A092A03D088
:1016A800D8900A360B36092EFBD70A5001014D1384
:1016B8000B504E13B0EC12F00D2B0D51C4E012007C
:1016C8000001EA6BE669E86BE96B1200080E026E2E
:1016D8000001C7510DE1080EC65D0AE2C6C002F05E
:1016E800F95102E1010E03D0F90502E1020EF96F8A
:1016F8000250C65F000EC75B20EE01F036D802C06C
:10170800DFFF480ED86F040ED96FC5B11AD00BD0C1
:10171800C2C0F6FF19D8F76403D00800F55002D00C
:1017280079EC09F01AD80250F3E11200C2C0F6FFB2
:101738000BD8F76403D00800F55002D079EC09F013
:101748000CD80250F3E11200C3C0F7FFF86AD8C002
:10175800D9FFD9C0DAFF070E1200DF6E0001C24BB5
:10176800C32BD84BD92B02061200BA51D926BB512C
:10177800DA22120060980001C5BF17D0010134AF0A
:101788000AD0020E0001F76FEF5102E1D2EC10F01F
:10179800F36BF26B120028D80C0EDF6E53EC0AF0D4
:1017A8005FEC0EF0040E57EF0EF0040140AF0ED0C0
:1017B800010E0001F76FEE5102E1D2EC10F0F36B6D
:1017C800F26BF051D8A41200BAEF0FF0020E00012C
:1017D800F76F0AD8DF6E53EC0AF0F36BF26BF05137
:1017E80002E1BAEF0FF0120020EE01F05B50D926AB
:1017F8005C50DA22080EDF6E20EE02F05B50D9262C
:101808005C50DA22400EDE6E040EDD6E5BC0D9FF3E
:101818005CC0DAFF040C0A6E0001D251D31104E057
:1018280020EC07F0DFBE1200D451D51104E0CFEC54
:1018380004F0DFBE1200EAC00BF0E669E86BE96B62
:1018480008C198F409C199F40AC19AF40BC19BF430
:10185800010E04019C6F030E0001EA6F1AD0020EFC
:1018680004019C6F020C23D810D021D80AD0B0EC08
:1018780012F07AEC01F0020E0B1807E1D9EC04F033
:1018880004E0E8EC04F05FEF0CF0010E026E5FEF8D
:101898000CF00A50010AE3E0030AF7E0010AE3E06A
:1018A800070AEFE0010AE1E07A0AE1E01200020E1D
:1018B80004019C6F020C076E07500BE1F8EC0BF06B
:1018C8000C0EDF6E53EC0AF05FEC0EF0040E57EFCF
:1018D8000EF00750040DF3CF03F0F4CF04F00250DC
:1018E800020DF3500326F4500422D8900336043630
:1018F800D89003360436000E0324086E040E042024
:1019080016D80250036E046AD8900336043607507E
:10191800056E066A19D8035005260450062214D805
:10192800040E0524086E040E062001D8000C096E6A
:1019380008C0D9FF09C0DAFF000EDB8408C0D9FF50
:1019480009C0DAFFDB8E000CD89005360636D89031
:10195800053606361200C00E20142A6E7F0E21149A
:101968002B6E2C6A2D6A20503F0B2E6E2AC011F068
:101978002BC012F02CC013F02DC014F02EC015F09F
:1019880024C016F025C017F026C018F027C019F09B
:1019980070EC0EF027502EC028F0296A2826000E79
:1019A800292229BE000C295004E1410E285CD8A048
:1019B8001200400E2A24116E000E2B20126E000E0B
:1019C8002C20136E000E2D20146E156A24C016F0FC
:1019D8002E50255C286E000E2658296E400E2824AD
:1019E800176E000E2920186E2E502724C00F196E6E
:1019F80070EF0EF004014039E832030B29E01200C1
:101A08000001C58F080EF16F080CFA0E0001C26FB5
:101A1800C36BC581010EC66FC58F010CA40E44258A
:101A28000001C26FC36B010EC323F3D70001C58F3A
:101A3800A40E04014425D96EDA6A010EDA2242C4E2
:101A4800DFFF12000F6A020E66EC13F0FAEF0EF0D9
:101A5800415102E1B7EF0EF0010A02E1EBEF04F0A9
:101A6800020A02E1EBEF04F0060ACAE0030A02E107
:101A780022EF09F0010AE6E00F0AC7E0010A02E1D5
:101A880098EF0DF0030ACAE0010AD0E0070A120035
:101A98000001B66BB76B16EC12F0B86B010EC7EC11
:101AA80013F0000905E080AA03D0010E0001B86F09
:101AB800B8C0B9F00001B9512EE0010EC7EC13F01F
:101AC8000009FBE13AEC08F0AFEC13F024D029EC64
:101AD80007F0200E0001F16101D01DD060B21BD0CB
:101AE80042EC14F000090AE1010EC7EC13F00009FA
:101AF80005E0606A646A0001F16BB96B44EC14F0AC
:101B08000001B607D8A0B707B62905E1B72903E150
:101B1800020EFCEC13F00001B95102E080BAD7D7ED
:101B280080EF15F015EF00F00001C58F8CEC08F080
:101B380037D834EC13F0026A040E036EF2EC09F0A5
:101B480034EC13F0608C186A450E182496EC08F0F3
:101B58001824A3EC08F0182A030E1864F5D7A40E6D
:101B6800026E010E1DD834EC13F0609C9DEC08F059
:101B7800000ED66F040E1BD842C4FAF0FA5103E1E6
:101B8800100EF16F100C0F6A010E0E6EFA0E106E29
:101B9800B5EC07F0FAEC0EF0200E0001F16F200C06
:101BA800036E056A046A076A030E066E030CD76F94
:101BB800D6C05BF0D7C05CF012004B504A104910F9
:101BC80004E1020E485CD8A0000C4B504A1005E115
:101BD800040E485C010E495801E3000C020E30D88F
:101BE80009E14CC002F04DC003F04EC004F04BECCC
:101BF80014F0010C030E24D809E14CC002F04DC0CA
:101C080003F04EC004F049EC14F0010C516A526A1A
:101C180051504F6E5250506E514A522A5050E9E17D
:101C2800400E4F5CD8B0010C4CC0D9FF4DC0DAFF54
:101C38004C4A4D2ADF5094EC01F00009E9E1010C0F
:101C4800481849104A104B10120035D8000EDFBC56
:101C5800010E036E040EBA1B080EF1190AE1040105
:101C680042517F0B636E6350100ED8B4040E00010E
:101C7800F16FF70512E12AD823D86AEC0BF0020EAF
:101C8800F91903E118D8040E0ED0035003E113D854
:101C9800480E09D010D8080E06D0010134BF349F71
:101CA8000001F76B1200DF6EBAC0D9FFBBC0DAFFC4
:101CB800000EDB8E000CBAC0D9FFBBC0DAFF1200E1
:101CC800DA22480EDE6E040EDD6E040C20EE02F001
:101CD800BA51D926BB5112001F6A15501F5C20E368
:101CE800195015C01AF01B6A1A26000E1B221F5025
:101CF8001C6E1D6A1A501C5C1D50800A1E6E1B50FB
:101D0800800A1E580DE217C0D9FF18C0DAFF165016
:101D18001F24E16EE26ADFCFE7FF174A182A13D0C3
:101D280016501F24D96EDA6A1F501124026E000E55
:101D38001220036E000E1320046E000E1420056E90
:101D480019EC14F0DF6E1F2A3F0E1F64C6D711C0AE
:101D580007F012C008F013C009F014C00AF016C04A
:101D68000BF0F5EF0FF00401486B496B28D0000128
:101D7800C58F040148810001EB0528E1040148836F
:101D880025D00001C58F22D00001C58F040144BFB2
:101D980005D044510F0B91EC05F004D044510F0BC2
:101DA80099EC05F0DECF02F0DDCF03F01AD8DFAEF4
:101DB8000DD017D8DFA40AD0010E486F07D04051C4
:101DC8001F0BD5E0010ADDE0030ADEE00001C5AF24
:101DD8001200480EC26F040EC36FC581020EC66F93
:101DE800020C02C0D9FF03C0DAFF12001CD00001A8
:101DF800E55108E1010E026E5FEC0CF0E8EC04F02E
:101E08005FEF0CF03BC116F03CC117F016501018EC
:101E18002EE117501118D8A4120006EC0BF03CEC78
:101E28000FF00FEF0BF00EC014F00FC015F01550A7
:101E380004E07F0AD8A4120018D01450010A02E165
:101E480022EF14F0030AD8B41200010A02E1BEEF2F
:101E58000AF0060ACCE0770AD8B41200010AD8B40E
:101E68001200070AD8A4010A1200141C120012005A
:101E7800066E025004E0065099EC05F003D00650B7
:101E880091EC05F0DECF07F0DDCF08F00750081021
:101E980003E1026A036A120020EE02F026D803C0AA
:101EA800DEFF04C0DDFF20EE01F01FD805C0DFFF14
:101EB80017D8400EDF1614D8000EDB8611D8DB8E3B
:101EC800025004E0065099EC05F003D0065091EC5E
:101ED80005F0040EDF1A07C002F008C003F0040C76
:101EE80007C0D9FF08C0DAFF12000750D9260850EA
:101EF800DA221200076E086A040E096E0250036E99
:101F0800046AD890033604360750056E066A22D84C
:101F180003500526045006221DD8055008260650F1
:101F280009221FD8DF9E025004E1075091EC05F00A
:101F380003D0075099EC05F008C0DEFF09C0DDFFAB
:101F480010D8DF9C20EE04F00850D9260950DA2278
:101F5800DF8C1200D89005360636D890053606363E
:101F6800120008C0D9FF09C0DAFF12000001F251BF
:101F7800D8A41200010EF26FF351D8A41200010E7A
:101F8800F36F020EF7190AE120EE01F0B9EC0BF03D
:101F9800DF6A5FEC0EF0480E57EF0EF0F705D8A495
:101FA8001200E46B20EE01F013D84EEC0AF010D8C2
:101FB800400E13D818EC13F0DF6E18EC13F0000E77
:101FC800DB8E010EE46FF8EC0BF0800EDF6E800CF8
:101FD800D651D926D751DA221200DE6E040EDD6EF4
:101FE800040CC00E07140C6E7F0E08140D6E0E6ADA
:101FF8000F6A0C5007182EE10D5008182BE10E50EF
:10200800091828E10F500A1801E0120007C002F071
:1020180008C003F009C004F00AC005F0CDEC12F0C6
:1020280009C0F8FF08C0F7FF07C0F6FF106A0B5099
:102038001024D96EDA6ADF50F56E3F0E101802E1EF
:102048000C0001D00D00102A3F0E1064F0D7000ECE
:1020580075EC12F012000250046E03502ED8055091
:10206800095906500A5907500B5907E274EC01F058
:1020780008C1D0F009C1D1F012000001D051025CB2
:10208800D151035804E202C0D0F003C0D1F0D051BE
:10209800046ED15112D80401986F055001010959F5
:1020A8000401996F065001010A5904019A6F0750FB
:1020B80001010B5904019B6F1200056E066A076A3D
:1020C80004500101085D12002D0EF46FFBC01FF0D3
:1020D800FD0E1F1629E1D890FB313F0B040D000EB1
:1020E800F324D66F040EF420DBEC0DF0040E5B1A1B
:1020F80018EC13F0DF30E8320F0B0D0A02E06CEF3A
:1021080013F0400E026E040E036E20EE02F0ECECAB
:102118000FF0DECF04F0DDCF05F0076A080E066E7B
:10212800A5EC11F07EEF11F0FB51FD0B040AD8B4B9
:1021380029EC0EF012003CEC14F0000904E13FEC2D
:1021480014F056EC12F036C002F037C003F038C075
:1021580004F039C005F08EEC13F0000901E112001B
:10216800010E0001E36F3950381003E1800E375C2F
:1021780005E33AC002F03BC003F0120036C02FF06E
:1021880037C030F038C031F039C032F03AC033F0DF
:102198003BC034F03CC035F037EF12F0EE6BEF6B1C
:1021A800020EF71913E120EE01F049EC0AF04EECAB
:1021B8000AF049EC0AF0480EDE6E040EDD6E5BC0D4
:1021C800D9FF5AEC0AF053EC0AF0000CC65104018E
:1021D800465D0001C7510401475904E246C4C6F0F0
:1021E80047C4C7F06AEC0BF06AEC0EF064EC0EF032
:1021F8005FEC0EF0480E57EF0EF002C008F003C077
:1022080009F011D00606D8A0070604C0F6FF05C0DD
:10221800F7FF044A052A17D8084A092A0800F5CF03
:10222800DFFFDF5008E00650071005E0EBD70BD8BA
:10223800DF6A084A092A0606D8A007060628F7E131
:102248000728F5E1120008C0D9FF09C0DAFF12001B
:102258000CC002F00DC003F0056A046A020E076E96
:10226800066A34EC13F00E50D8A412000CC002F029
:102278000DC003F0700E046E2A0E0ED8A5EC11F0F6
:10228800200E0C24026E000E0D20036E900E046EBC
:102298002A0E02D8A5EF11F0056E076A200E066E09
:1022A800200C0AC002F00BC003F0F2EC09F034EC89
:1022B80013F00C50D8A412000AC0D9FF0BC0DAFFE3
:1022C800F80EDF6E20EE01F00FD820EE02F00CD8E9
:1022D80020EE03F009D820EE04F00A50D9260B505E
:1022E800DA220F0EDF6E0F0C0A50D9260B50DA22B5
:1022F800DF6812000001F96BF06BEE6BEF6BE46BBB
:10230800F76B5FEC0EF018D85FEC0EF015D85BC0D9
:10231800D9FF5CC0DAFF7F0EDF16C56BC66BC76BD3
:10232800A9EC08F0FEEC0CF00F6A030E66EC13F053
:10233800FAEC0EF0BEEF0BF07F0EDF16040EBA1BA0
:10234800040C04C00AF005C00BF002C008F003C07A
:1023580009F016D00AC0F6FF0BC0F7FFF86A08C0EC
:10236800D9FF09C0DAFF070EF76403D00800F5505B
:1023780002D079EC09F0DF6E0A4A0B2A084A092ACA
:102388000606D8A007060628E5E10728E3E11200BB
:1023980001EE00F0A70EEE6AE806FDE100EEBAF0E5
:1023A800420EEE6AE806FDE15D6A5C6A5B6ABC0E95
:1023B800F66E270EF76E000EF86E01EEA7F010EE1F
:1023C80014F00900F5CFEEFFE550E150FAE15E9018
:1023D8005E92000EF86E00014CEF0DF013D0B0ECD9
:1023E80012F02151F00B0209216F3A0E2B6F2C6B62
:1023F80017EF00F0010E04019C6F89EF01F07F0ECA
:102408000FEF0CF00001E651F5E0030AE8E0110ACD
:1024180002E117EF00F00C0AEDE0E30A02E117EF22
:1024280000F0EDD7800E9B6E700ED36E100ED26E3C
:10243800D2AEFED7900EB56E49EC13F0010EF2EC59
:1024480013F0020EE8EC13F0010ED3EC13F0020EB9
:10245800D3EC13F0010EBBEC13F07DEC13F0AFECF2
:1024680013F03AEF08F02FC002F030C003F031C08B
:1024780004F032C005F08EEC13F0000901E11200FF
:102488002FC020F030C021F031C022F032C023F03C
:10249800600E246E33C025F034C026F035C027F016
:1024A800AFEF0CF00B6A330E0C6E0D6A0E6A0BC0A0
:1024B80007F00CC008F00DC009F00EC00AF01DECC2
:1024C80013F0200E0B26000E0C220D220E220E50A9
:1024D8000D1003E1800E0C5CEAE3010E0001E36FCE
:1024E800010C036E000EF2BE010E046EA68E0350A0
:1024F80003E0026A022A01D0026A023A0246024650
:10250800A6500218BF0B0218A66EA684E2EC12F0C1
:10251800A69404B002D0F29E01D0F28E000C036E95
:1025280017D8DF6001D0000C13D8DF5E0350D96ED6
:10253800DA6A090EDF6405D00350D96EDA6A070E2D
:10254800DF5E0350D96EDA6A0F0EDF64010C000CEF
:102558000350D96EDA6A300C01011F51800B7009E3
:102568001F6F1F9F206BF00E2117219B219D219F1C
:10257800226B236B246B256B0A0E266F276B286B47
:10258800296B2A6B2B6B2C6B2D6B2E6B2F6B306B87
:102598001200000EF2BE010E066E04C0F8FF03C062
:1025A800F7FF02C0F6FFA68EA69CA684A68806D8CA
:1025B80006B002D0F29E01D0F28E1200F29E550EA5
:1025C800A76EAA0EA76EA682AA0C0D6E0AA404D046
:1025D800026A0D507EEC0FF00AA205D0010E026EC1
:1025E8000D507EEC0FF06A0E0D240B6E0C6A0F0E68
:1025F8000C220BC0D9FF0CC0DAFF0AC0DFFF0F0C9A
:102608006AA010D011D8800EDE180BE15FEC0EF036
:10261800840EDE1806E108D80C0EDF6E05D8000E11
:10262800DB8E6A90659A1200D6C0D9FFD7C0DAFF50
:10263800120007C002F008C003F009C004F00AC085
:1026480005F08EEC13F0000901E1120007C002F05A
:1026580008C003F009C004F00AC005F0CDEF12F07D
:1026680002C008F003C009F008D008C0D9FF09C0AB
:10267800DAFF04C0DFFF084A092A0606D8A00706C1
:102688000628F3E10728F1E112009F0E896E380E43
:10269800926E0F015B6B400E8A6E840E936E5C6BBC
:1026A800800E856E8B6AB80E946E5D6B1200648422
:1026B80065986082010EED6FF56B0F6A750E02D892
:1026C800FAEF0EF00E6E106A116A136A126A12009F
:1026D800020EF71902E1FDEF09F0F76BE45107E18B
:1026E800F8EC0BF00C0EDF6E53EC0AF0000CE46B08
:1026F80012000F015D9D5D9F948E948C240EAC6E2C
:10270800900EAB6E700EAF6E020EB06E080EB86E05
:10271800AE501200066A0550041003E1330E035C44
:1027280008E30550041005E1800E035C02E2010E87
:10273800066E06501200ED6B0F6A740E66EC13F00D
:10274800FAEC0EF06092649401D0659465B4FDD7FC
:102758000001F56B12004F0E026E010ED0EC02F074
:10276800400E066E34EC13F00001F66B1200026E98
:1027780004D093840F015C9512000250D8B4120063
:10278800010AF7E01200026E03D081A4010C000CCC
:102798000250D8B4000C010AD8A4000CF6D7026E77
:1027A80003D09494949412000250D8B41200020AF0
:1027B800F8E012000C28522868289A282813902834
:1027C800C21B000000000000026E02D08B941200B1
:1027D8000250D8B41200020AF9E01200026E02D0C8
:1027E8008B8412000250D8B41200020AF9E01200D9
:1027F800026E02D08B7412000250D8B41200020A82
:10280800F9E01200A081020EA26FA16B9F6B9F0ED0
:10281800026E010E036E12000001ED51D8A41200E1
:10282800F52BF551D8B4F569120004C0F8FF03C0C0
:10283800F7FF02C0F6FF0800F55012001E0E0A6EE0
:10284800010EE9EC12F014EF0BF0030E026E010E0C
:10285800036E046A056A000C46EC14F0F66B12006D
:10286800020E036E026A000C84EF19F05E921100EA
:102878000001E3511200010EE36F010CF651120042
:10288800F8EF03F0E36B1200000C120012001200C4
:04289800510C010CD2
:1029200000DC2A182ADE29B02A2B290902620003BA
:102930000102C032090400000208065000070581A8
:102940000240000107050102400001080B010202DC
:102950000201000904010001020201000524002017
:1029600001042402020524060102052401000207D5
:102970000582030A000209040200020A000000079F
:10298000050302400000070583024000003C6D651E
:10299000746120687474702D65717569763D22725A
:1029A0006566726573682220636F6E74656E743D30
:1029B00022303B55524C3D27687474703A2F2F6D6E
:1029C000706C61627870726573732E6D6963726F7B
:1029D000636869702E636F6D2722202F3E003A03D3
:1029E0004D006900630072006F00630068006900B9
:1029F0007000200043006F006D0070006F007300D6
:102A000069007400650020004400650076006900DC
:102A1000630065000000000034034D00690063009E
:102A200072006F00630068006900700020005400AD
:102A30006500630068006E006F006C006F00670047
:102A40007900200049006E0063002E00008004021F
:102A5000200000004D6963726F6368704D6173738D
:102A60002053746F72616765202020203030303130
:102A70004861636B41426164676520080000401053
:102A80004748474800004010474800000000000049
:102A9000524541444D45202048544D2000004010EF
:102AA00047484748000040104748020051000000D6
:102AB0001A0331003200330034003500360037008D
:102AC0003800390030003900390012010002EF02ED
:102AD0000108D8045700010001020301040309049E
:102AE0004861636B4142616467652000464154312F
:0F2AF00032202020004D53444F53352E3000002C
:020000040020DA
:08000000FFFFFFFFFFFFFFFF00
:020000040030CA
:0E0000002308593CFFD180FF0FC00FE00F40D6
:00000001FF
